:100000000C940C030C9453030C9453030C9453035F
:100010000C9453030C9453030C9453030C94530308
:100020000C9453030C9453030C948F1D0C94621E78
:100030000C94A4140C9453030C9453030C94530386
:100040000C9453030C9453030C9453030C945303D8
:100050000C9453030C9405150C9453030C94530304
:100060000C9453030C9453030C9453030C945303B8
:100070000C9453030C9453030C9453030C945303A8
:100080000C9453030C9453030C9453030C94530398
:100090000C9453030C9453030C9453030C94530388
:1000A0000C9453030C9453030C94530314611B429C
:1000B00009001C0011000F000400080019000B00CB
:1000C0000C0038411D00070017002C000E00130023
:1000D0001A0006000A001800100028681600150013
:1000E00005000D001200E1001E00E30037002302AE
:1000F000440042002F00200034003F002502010090
:100100003500360022004300410027021F00330063
:100110002D00240245003100300021002E00400057
:100120002602E5001E0201003D0023004A004F00A8
:10013000E20020024C0050002500E700E0003C00F7
:1001400022024D00520027001F0229003E00240019
:100150002B0028183B0021022A00510026002A000B
:100160000100010001000100010001000100010087
:100170000100010001000100010001000100010077
:100180000100010001000100010001000100010067
:100190000100010001000100010001000100010057
:1004600001000100010001000100010012036B0006
:100470006500790062006F00610072006400000096
:10048000160371006D006B006200750069006C005E
:1004900064006500720000000403090409026D0095
:1004A000040100A0FA090400000103010100092170
:1004B000110100012240000705810308000A090418
:1004C00001000103010200092111010001224D0078
:1004D0000705820308000A09040200010300000066
:1004E0000921110100012236000705830308000AD3
:1004F0000904030001030000000921110100012289
:1005000039000705840320000112011001000000DA
:1005100008EDFE606001000102000105010906A16D
:1005200001050719E029E7150025019508750181E6
:1005300002050819012905950575019102950175B6
:100540000391010507190029F71500250195F87594
:10055000018102C005010980A10185021601002662
:1005600003001A81002A8300751095018100C005DF
:100570000C0901A1018503160100269C021A010045
:100580002A9C02751095018100C005010902A10194
:100590000901A10005091901290515002501950585
:1005A0007501810295017503810105010930093149
:1005B0001581257F95027508810609381581257FEB
:1005C000950175088106050C0A38021581257F956D
:1005D0000175088106C0C005010906A101050719BA
:1005E000E029E7150025019508750181029501753F
:1005F00008810105081901290595057501910295E4
:1006000001750391010507190029FF150026FF0058
:10061000950675088100C00011241FBECFEFDAE0F7
:10062000DEBFCDBF04B603FE27C0809117029091B4
:100630001802A0911902B0911A028730904BA7407E
:10064000B04BD1F4109217021092180210921902B6
:1006500010921A0214BE84B7877F84BF0FB6F89435
:10066000A89580916000886180936000109260007E
:100670000FBEE0E0F8E3099511E0A0E0B1E0EEE99B
:10068000F3E402C005900D92A233B107D9F722E03E
:10069000A2E3B1E001C01D92A731B207E1F70E94C9
:1006A000E51A0C94A1210C94000090E080E00895DC
:1006B0000895089581E00895089581E008950C94C7
:1006C0005A030E94F40C2FEF84E39CE021508040F9
:1006D0009040E1F700C000000C942815EF92FF92C3
:1006E0000F931F93CF93DF938C01FC01E080F18087
:1006F00080915D01811140C082818823C1F1C701D1
:100700000E947B12C82F682FC7010E942212B701D6
:100710008C2F0E94A604EC01B8010E945F0388237D
:1007200009F44BC0B801CE010E94AF06882309F43A
:1007300044C0C531F0E7DF0720F5C23080E7D807B5
:1007400008F04DC0C115E0E7DE0791F1C130D04798
:10075000E1F181E08093340180933501C801DF919C
:10076000CF911F910F91FF90EF900C945D03C70103
:100770000E945112C82FCBCFC7010E947B12B70134
:10078000C8CFCC3380E7D80709F49BC0CD33D0471E
:1007900001F7F8018281882309F4BAC0109235016B
:1007A0000E94D414909333018093320180E296C06A
:1007B000F801828181110E94610380E0DF91CF9175
:1007C0001F910F91FF90EF900895F8018281882387
:1007D000A1F38091D70181608093D701EECFF8011A
:1007E0008281882309F4BACF0E943614811102C095
:1007F0000E941C140E94531490E09093090280936D
:100800000802FE01E350F047809108028160E23166
:10081000F10538F4ED55FE4D0C94512180910802FC
:10082000826080930802809108020E9457140E94FF
:10083000F40CC3CF809108028460F3CF809108024A
:100840008860EFCF809108028061EBCF8091080231
:100850008062E7CF809108028064E3CF8091080234
:100860008068DFCF809108028C60DBCF8091080226
:100870008E7FD7CF809108028D7FD3CF80910802E1
:100880008B7FCFCF80910802877FCBCF80910802EA
:100890008F7EC7CF809108028F7DC3CF80910802E1
:1008A0008F7BBFCF809108028F77BBCF80910802EA
:1008B000837FB7CF90910802892F97FB87F98058E3
:1008C000B0CFF8018281882361F0109234010E9438
:1008D000D414909333018093320182E00E94590A2C
:1008E0006CCF8091340181110FC0809132019091C1
:1008F00033010E94E014883C910530F486E20E94A6
:100900002E0986E20E940A0A82E00E94600A55CF00
:100910008091350181110FC0809132019091330196
:100920000E94E014883C910530F487E20E942E0971
:1009300087E20E940A0A80E2E8CF0C94FE060C943B
:1009400000070C945C030C94A1040895972F70E0A9
:1009500026E0929F600D711D1124FB019EE1899F8D
:10096000E00DF11D1124EE0FFF1FE455FF4F85919F
:1009700094910895FC01EE0FFF1FE459FB4F859100
:10098000949108950E94A6040E9433069C0181154B
:1009900040E4940708F097C0211580E3380708F079
:1009A000FAC0203E310508F074C0203C310508F043
:1009B000E5C0283A310588F4253A310508F0E2C04F
:1009C0002130310509F477C0C9010497813A9105B6
:1009D00008F471C030E020E06EC0C901885A910966
:1009E0004597C0F7283A310509F4FEC0293A310588
:1009F00009F4FDC02A3A310509F4FCC02B3A31054F
:100A000009F4FBC02C3A310509F4FAC02B3B31053F
:100A100009F4F9C02C3B310509F4F8C02D3A310531
:100A200009F4F7C0203B310509F4F6C02E3A310530
:100A300009F4F5C02F3A310509F4F4C0213B310522
:100A400009F4F3C0223B310509F4F2C0233B310520
:100A500009F4F1C0243B310509F4F0C0253B310510
:100A600009F4EFC0263B310509F4EEC0273B310500
:100A700009F4EDC0283B310509F4ECC0293B3105F0
:100A800009F4EBC02A3B310509F4EAC020E034E464
:100A900012C0211590E2390780F42F3F310509F08B
:100AA00050F4283E310538F0C901805F9109306566
:100AB000409708F08FCFC9010895C9019F700E9427
:100AC000BA049C01F8CF8115944508F041C0211566
:100AD00083E5380708F06AC0211592E5390738F533
:100AE000211541E5340708F05CC0211580E5380781
:100AF00008F454C0C90134E0969587953A95E1F71A
:100B00008370422F46954695437090E2499FA0011D
:100B10001124582B822F837021E030E002C0220F75
:100B2000331F8A95E2F7242B352B3C68C4CFC901CB
:100B30008370992741E050E002C0440F551F8A9509
:100B4000E2F72695269580E2289F90011124EBCFAD
:100B5000211596E5390748F4922F88272115354548
:100B6000C8F59C01246F306AA6CFC90190563F702A
:100B70008115904108F02ECF30629DCFC901805C75
:100B800091099DCF253A310549F1263A310549F5BC
:100B900022E830E490CF3327306C8DCF3F70306A3D
:100BA0008ACF322F2227216F306A85CFC901837007
:100BB000992741E050E002C0440F551F8A95E2F7A3
:100BC0002695269580E2289F90011124242B352B11
:100BD0003A6871CF88279F719C01CECF21E830E41D
:100BE0006ACF23E830E467CF22EE34E464CF29EE05
:100BF00034E461CF2AEE34E45ECF25EB34E45BCFFE
:100C000026EB34E458CF23EB34E455CF24EB34E423
:100C100052CF27EB34E44FCF2CEC34E44CCF2DEC07
:100C200034E449CF23E835E446CF2AE835E443CF1E
:100C300022E935E440CF24E935E43DCF21E236E432
:100C40003ACF23E236E437CF24E236E434CF25E24C
:100C500036E431CF26E236E42ECF27E236E42BCF3E
:100C60002AE236E428CF803E910581F1C8F4813331
:100C7000910509F462C048F48932910509F456C01F
:100C80008A32910509F460C0089589339105B9F05D
:100C900082389105A1F08533910509F440C008958B
:100CA000863E910561F138F4823E9105B1F0833EB4
:100CB0009105E1F00895873E910551F10895209145
:100CC00008022370D9F080EE90E008952091080288
:100CD00020FF14C089E390E008952091080222FFCC
:100CE0000DC024FD09C083EE90E008952091080214
:100CF00022FD31C024FF02C090E080E008952091E1
:100D0000080223FFFBCF24FDF7CF87EE90E0089584
:100D10002091080223FFEECF86EE90E00895209107
:100D2000080225FFEBCF89E290E0089520910802A8
:100D300025FFE4CF85E390E008952091080226FF87
:100D4000DDCF8AE290E008952091080226FFD6CFF9
:100D500081E390E0089582EE90E0089508950F9366
:100D60001F93CF938C01FB018281811106C0C1E0EA
:100D70008C2FCF911F910F910895C0914301C11104
:100D800025C00531104799F70E94AE0681E0809397
:100D900043010E94D4149093420180934101109228
:100DA0003601109238011092370110923A011092D8
:100DB000390110923C0110923B0110923E011092B9
:100DC0003D011092400110923F01D2CF809141012C
:100DD000909142010E94E014883C910540F6809178
:100DE0003601E82FF0E0EE0FFF1FE95CFE4F1183A4
:100DF00000838F5F80933601C0E0BACF0C94580314
:100E00000C945903CF93DF9385B7806885BF85B76E
:100E1000806885BFA9E1B1E04EE151E0C1E0D0E0DA
:100E20008D91E82FE295EF70F0E061A18F709E0147
:100E300001C0220F8A95EAF7922F9095962391A3ED
:100E400082A1822B82A34A175B0751F7A3E1B1E08D
:100E500061E070E08D91E82FE295EF70F0E041A144
:100E60008F709B0101C0220F8A95EAF7922F90950F
:100E7000942391A382A1822B82A381E0A931B80798
:100E800049F7109249011092440110924A011092C0
:100E9000450110924B011092460110924C011092A4
:100EA000470110924D0110924801DF91CF910C94AF
:100EB0009D046F927F928F929F92AF92BF92CF923A
:100EC000DF92EF92FF920F931F93CF93DF9334E45F
:100ED000632E31E0732E49E1E42E41E0F42E01E06F
:100EE00010E0DD24D394E301C9903E01DE011E929F
:100EF000F70181917F01E82FE295EF70F0E091A179
:100F00008F70A80101C0440F8A95EAF7892F842BBE
:100F100081A382A1842E8094882182A380EA8A956D
:100F2000F1F763E171E090E080E0EB013991BE01FF
:100F3000A32EA2942FE0A222B12CE50128A19C901F
:100F40003F70580101C0AA0C3A95EAF7A22220E0AE
:100F500031F4202F082E01C0220F0A94EAF7292924
:100F60002C9301968630910501F781A1882181A3F8
:100F700082A1482B42A38C91C81641F0D0924E0119
:100F80000E94D4149093500180934F01D9E46D16C0
:100F9000D1E07D0609F0A7CF80914E018823F1F0C2
:100FA00080914F01909150010E94E0140697B0F09B
:100FB00080914401809349018091450180934A01C9
:100FC0008091460180934B018091470180934C01B1
:100FD0008091480180934D0110924E010E949F0420
:100FE00081E0DF91CF911F910F91FF90EF90DF9003
:100FF000CF90BF90AF909F908F907F906F9008950B
:10100000E82FF0E0E75BFE4F80810895089590930C
:101010005601809355010895E0915501F0915601D4
:10102000309721F00190F081E02D099480E008953F
:10103000E0915501F0915601309721F00280F38143
:10104000E02D09940895E0915501F09156013097F3
:1010500021F00480F581E02D099408952091530139
:10106000309154012817390771F0909354018093FF
:101070005301E0915501F0915601309721F006801F
:10108000F781E02D0994089520915101309152018A
:101090002817390771F09093520180935101E09124
:1010A0005501F0915601309721F00084F185E02D33
:1010B0000994089508950C945A080E94CB140E9434
:1010C00002070C948D15BF92CF92DF92EF92FF92A0
:1010D0000F931F93CF93DF9300D000D00F92CDB723
:1010E000DEB70E94590788E5C82E81E0D82E10E0AF
:1010F00000E0E02E802F0E940008B82EF601F1904B
:101100006F01F81609F45BC08091D70181FD0E9440
:10111000060830E020E0FB244F2D50E0922FBA016A
:10112000022E02C0759567950A94E2F760FF41C0F0
:101130002983EA8221E030E0790102C0EE0CFF1C35
:101140009A95E2F72B2D30E02E213F2181E0232BD1
:1011500009F480E08B830E94D4148160782F9D83F2
:101160008C8349815A816B818D810E940509F80128
:10117000E85AFE4F80818E2580830E943A180E9493
:101180000C0890915701891789F10E940C088093EF
:1011900057010F900F900F900F900F90DF91CF910C
:1011A0001F910F91FF90EF90DF90CF90BF900C9424
:1011B000A3042F5F3F4F2630310509F0AFCF0F5FFB
:1011C0001F4F0530110509F094CF8FEF89838A8373
:1011D0001B820E94D4148160782F9D838C83498167
:1011E0005A816B818D810E940509C7CF0F900F90A6
:1011F0000F900F900F90DF91CF911F910F91FF9063
:10120000EF90DF90CF90BF900895CF93DF93CDB74D
:10121000DEB72B970FB6F894DEBF0FBECDBF4F835E
:10122000588769877A878B871E8285E0FE0137960B
:10123000DE01119601900D928A95E1F749815A815C
:101240006B817C818D819E812B960FB6F894DEBFD9
:101250000FBECDBFDF91CF910C947C0F882309F492
:10126000D8C0823871F40E940C0881FDD2C089E395
:101270000E9423130E94ED1389E30E9460130C94D3
:10128000ED13833859F40E940C0880FDC2C083E539
:101290000E9423130E94ED1383E5EFCF843859F4A5
:1012A0000E940C0882FDB5C087E40E9423130E94AF
:1012B000ED1387E4E2CF9CEF980F913A18F40E9467
:1012C0002313DDCF90E2980F983050F4877091E0AF
:1012D00001C0990F8A95EAF7892F0E94A413CFCFF6
:1012E0009BE5980F933070F4853A31F0863A39F0E7
:1012F00083E890E00C942E0881E890E0FBCF82E830
:1013000090E0F8CF98E5980F953108F082C0883AC0
:1013100009F440C0893A09F440C08A3A09F440C04F
:101320008B3A09F440C08C3A09F440C08B3B09F475
:1013300040C08C3B09F440C08D3A09F440C0803B6A
:1013400009F440C08E3A09F440C08F3A09F440C015
:10135000813B09F440C0823B09F440C0833B09F45F
:1013600040C0843B09F440C0853B09F440C0863B43
:1013700009F440C0873B09F440C0883B09F440C0F1
:10138000893B09F440C08A3B09F440C090E080E00A
:101390000C94440882EE90E0FBCF89EE90E0F8CF09
:1013A0008AEE90E0F5CF85EB90E0F2CF86EB90E00F
:1013B000EFCF83EB90E0ECCF84EB90E0E9CF87EBCD
:1013C00090E0E6CF8CEC90E0E3CF8DEC90E0E0CFC6
:1013D00083E891E0DDCF8AE891E0DACF82E991E01D
:1013E000D7CF84E991E0D4CF81E292E0D1CF83E2FC
:1013F00092E0CECF84E292E0CBCF85E292E0C8CFFC
:1014000086E292E0C5CF87E292E0C2CF8AE292E024
:10141000BFCF0895882309F44BC0823871F40E942D
:101420000C0881FF45C089E30E9423130E94ED133D
:1014300089E30E9460130C94ED13833859F40E94E1
:101440000C0880FF35C083E50E9423130E94ED1332
:1014500083E5EFCF843859F40E940C0882FF28C03E
:1014600087E40E9423130E94ED1387E4E2CF9CEFF0
:10147000980F913AF0F290E2980F983050F48770FC
:1014800091E001C0990F8A95EAF7892F0E94AA136B
:10149000D2CF9BE5980F933020F490E080E00C943D
:1014A0002E08885A853120F490E080E00C9444089E
:1014B0000895882321F00E94A4130C94ED1308953D
:1014C000882321F00E94AA130C94ED1308958F92A3
:1014D0009F92AF92BF92DF92EF92FF920F931F9372
:1014E000CF93DF9300D000D00F92CDB7DEB77C0151
:1014F0006D837983FC01058102950F7012811111B2
:101500000E94C3130E941C13D82E882371F011234C
:10151000A1F08D81805E883080F082E00E94061309
:101520000E941C1391E0D82ED926E981E295EF7034
:10153000F0E0EB54FE4D0C945121D12CF6CF0981F3
:101540000F70F981F07F11F00295007F1123B1F047
:10155000002361F08D81805E883018F02D8121118B
:1015600009C0802F0E94A4130E94ED138D810E9458
:101570002E0915C0802F0E94B513F6CF8D810E94D1
:101580000A0A002361F08D81805E883018F03D8169
:10159000311129C0802F0E94AA130E94ED13DD2073
:1015A00009F4D3C10E94F91280FDCFC1F701128264
:1015B0000E94F3120E943A11C7010E94B60C0E94C9
:1015C000F3120F900F900F900F900F90DF91CF912B
:1015D0001F910F91FF90EF90DF90BF90AF909F9081
:1015E0008F900C945C11802F0E94BB13D6CF498141
:1015F0004F70B42E5981507F503219F0B29480EF61
:10160000B8228D81882369F0813029F1112369F195
:10161000002359F0F701858180FFA8CF8F70858363
:1016200004C0112361F0011104C08B2D0E94590ADE
:10163000B6CF8B2D0130D1F70E94D713B0CF011157
:1016400006C00E94DA138B2D0E94600AA8CF0130D9
:1016500009F4A5CFF6CF112321F0063008F09FCF73
:10166000E4CF053008F09BCFEECF002361F38D81EE
:101670000E940A0A94CF898186958695837069F0C5
:10168000813009F08CCF8D8199819370111102C046
:1016900090E080E00E94440882CF8D819981937010
:1016A000111102C090E080E00E942E0878CF8D8159
:1016B000112329F00E9448170E942F1870CF0E9412
:1016C000B017FACF8981837009F05FC0111167CF1D
:1016D0002D81229526952770220F220F8D818F70E4
:1016E00090E0B0E0A0E04C015D01022E04C0880C47
:1016F000991CAA1CBB1C0A94D2F7FD8160E070E023
:10170000CB01F4FF0FC06FE070E080E090E004C018
:10171000660F771F881F991F2A95D2F760957095DD
:101720008095909529812695269523702D832230CA
:10173000B1F0233019F19B01AC01282939294A293C
:101740005B2929833A834B835C833D8169817A815C
:101750008B819C813130B1F00E94C71020CF9B015A
:10176000AC01282939294A295B2929833A834B83EB
:101770005C83CA01B9010E94F11011CF0E94C71009
:10178000C501B4010E949D100ACF8695112311F066
:1017900089818170882309F402CF2D8122952695B5
:1017A0002770220F220F8D818F7090E0B0E0A0E0B3
:1017B0004C015D01022E04C0880C991CAA1CBB1CA4
:1017C0000A94D2F73D8160E070E0CB0134FF0FC096
:1017D0006FE070E080E090E004C0660F771F881F24
:1017E000991F2A95D2F760957095809590954981BB
:1017F0004695469543704D834230B1F0433019F120
:101800009B01AC01282939294A295B2929833A837C
:101810004B835C833D8169817A818B819C813130EE
:10182000B1F00E94CD11BBCE9B01AC012829392912
:101830004A295B2929833A834B835C83CA01B90116
:101840000E94F711ACCE0E94CD11C501B4010E94D7
:10185000A311A5CE3D81323F09F447C080F4303F4B
:1018600079F1313FD9F1832F805E8031D0F011239F
:1018700009F456C001117ACE89818F7133C04D8130
:10188000433FD1F1443F99F7112309F43FC08981C7
:101890008F7189830E943A1163E089810E94FD1251
:1018A0007ECE5D815F705D8389818F71112321F010
:1018B0000E943A118D81BACE0E945C118D81C4CEF6
:1018C000112341F0053008F06ACE89818F710E94A2
:1018D000811165CE063008F062CEF7CF89818F7115
:1018E000112339F00E943A115ACE89818F71112348
:1018F000C9F30E945C1153CE112329F089818F71A5
:101900000E9425114CCE0E941B1149CE81E00E94FD
:101910000613023008F443CE82E00E9406133FCE45
:101920000111A5CE89818F71E4CF49814F706D81FE
:10193000C7010E9455030E94161031CE49814F7095
:101940006D81C7010E94A5042ACE0F900F900F90C1
:101950000F900F90DF91CF911F910F91FF90EF901B
:10196000DF90BF90AF909F908F9008950F931F933B
:10197000CF93DF93EC018B819C81892B29F08881A7
:10198000998189238F3F29F4DF91CF911F910F9186
:101990000895CE010E946E038823B1F36881798196
:1019A0008A810E94C9128C010E9421120E94921009
:1019B000B801CE01DF91CF911F910F910C94670A6E
:1019C0000E94C3130E94D4130E9496130E94ED1329
:1019D0000E9420190E942F1890E080E00E942E089B
:1019E00090E080E00C9444080E94B2130C94E00C48
:1019F0000E94BD12282F892F82958F70903C80F411
:101A00008A30B0F4843020F4823090F480E008957D
:101A10008630E1F781E0203E88F0213FB9F70EC023
:101A20008C3011F08F3091F793FB882780F908955F
:101A300081E0203F39F018F4203E40F70895243F1C
:101A400029F7FCCF0895CF93DF9300D000D00F92F9
:101A5000CDB7DEB70F900F900F900F900F90DF91E2
:101A6000CF910895CF93DF9300D000D000D0CDB7B1
:101A7000DEB726960FB6F894DEBF0FBECDBFDF915E
:101A8000CF9108951F93CF93DF93E0915E0116E00D
:101A900080915F018E1304C0DF91CF911F91089553
:101AA000CE2FD0E01E9FF0011124E05AFE4F40815E
:101AB000518162817381848195810E94320DFE0182
:101AC0003196E770E5CF409190015091910160917E
:101AD00092017091930180919401909195010C94E1
:101AE000320D1F93CF93DF9380919501807FC1F4D6
:101AF000809192018823A1F080915E01C0915F01E5
:101B000060919001709191014091930150919401E5
:101B1000D62FD723DA01A095B09516E0C81304C0DC
:101B2000DF91CF911F91089590E04115510511F07B
:101B3000DF3F31F401968770F1CF2A0F3B1F17C0AA
:101B4000189FF001199FF00D1124E05AFE4F2181DA
:101B50002713F0CF20812613EDCF22812111EACF68
:101B6000238134812417350740F3241B350B283C8F
:101B7000310500F7209195012F7020612093950188
:101B800026E0289FF001299FF00D1124EB59FE4F0C
:101B900080818F708061808380E991E00E94B60C23
:101BA000DF91CF911F910C94420D9F92AF92BF9203
:101BB000CF92DF92EF92FF920F931F93CF93DF9319
:101BC000CDB7DEB72B970FB6F894DEBF0FBECDBFF3
:101BD0008C0185E0F801DE01179601900D928A953F
:101BE000E1F7D8014C9111965C9111971296EC9007
:101BF00012978091930190919401009709F46BC121
:101C00002091900130919101632F62236F3F09F47D
:101C100062C11396CD90DC9090909201992009F4C6
:101C2000F8C0C816D90608F43FC0F601E81BF90B46
:101C3000CF01FF24F394883C910508F0F12C80E952
:101C4000A82E81E0B82E80919501982F907FFF20DB
:101C500009F4B7C0911180C0FE2C35132AC024139B
:101C600028C0E11026C08F708061809395010E948A
:101C7000630DC5010E94B60C80919501D80115969F
:101C80008C938F2D2B960FB6F894DEBF0FBECDBF71
:101C9000DF91CF911F910F91FF90EF90DF90CF9048
:101CA000BF90AF909F900895809590958C0D9D1D4D
:101CB000C0CFCD2829F0842F85238F3F09F019C18B
:101CC00080E0B82FB170DB2EE0915E0120915F01C2
:101CD00036E080FD1CC0EE20A1F28091950181606C
:101CE00080939501F12CCDCF8E2F90E03E9FF00197
:101CF0001124E05AFE4F6181651306C060816413B0
:101D000003C062816E11E7CFFC013196E770E213E8
:101D1000EBCF4F8358878F8198850E94BD12292F62
:101D200022952F70903260F0225F2F70223078F46D
:101D30009F7051F0F8019581907F31F4D12C0AC049
:101D40009F7011F08823D1F3805E8830B8F3C8010A
:101D50000E94B60CFD2C95CF351306C0241304C089
:101D6000D801EE2009F47BC04F8358878F81988576
:101D70000E94F80C882309F4B8C0EE2009F4B5C01D
:101D800080919501803270F0209190013091910105
:101D90003A8329831B82DD82CC828E83CE01019619
:101DA0000E94B60C86E0F801A0E9B1E001900D9226
:101DB0008A95E1F70E94710D0E94630DFF24F39450
:101DC00060CF911113C07C2DDB86CA866E2D8B856A
:101DD0000E94230D80E991E00E94B60C86E0F50197
:101DE00011928A95E9F70E94630D4BCF3513BCCF52
:101DF0002413BACFE110B8CFD80115968C93C8013F
:101E00000E94B60C86E0F50111928A95E9F7F92C4B
:101E100038CFC816D90688F1B601681B790BCB01FB
:101E2000F12C883C910508F047C0FE2CEE2009F407
:101E30005CC0351330C024132EC08091950180FD05
:101E400021C0982F907FF1F0D80115968C931597AB
:101E5000903F39F0982F907F905F8F70892B159667
:101E60008C93C8010E94B60C86E0F801A0E9B1E0AD
:101E700001900D928A95E1F7B6CF809590958C0DE3
:101E80009D1DCECF86E0F801A0E9B1E001900D9252
:101E90008A95E1F7F6CE4F8358878F8198850E9407
:101EA000F80C81117FCF809195018160809395011D
:101EB000C8010E94B60CE5CE7C2DDB86CA866E2D4D
:101EC0008B850E94230D86E0E0E9F1E0DF011D92A1
:101ED0008A95E9F788CFEE2041F04F8358878F81AC
:101EE00098850E94F80C81115DCFC8010E94B60C44
:101EF00065CF81E08E25E5CE1F93CF93DF93CDB7DD
:101F0000DEB72C970FB6F894DEBF0FBECDBF4F8360
:101F1000588769877A878B879C87CE0107960E94AE
:101F2000D50D882369F08A859B85892B39F04F81EF
:101F30005885842F85238F3F09F071C016E05FC05C
:101F400086E0FE013796DE01119601900D928A958A
:101F5000E1F78A859B85892B89F388859F81892371
:101F60008F3F61F320915F0130E0C90101968770D6
:101F7000992740915E014817190671F40E94F40CEC
:101F800010925F0110925E0186E0E0E9F1E0DF016E
:101F90001D928A95E9F7D2CF96E0929FD001939F48
:101FA000B00D1124A05ABE4FFE01319601900D9242
:101FB0009A95E1F780935F010E94420DBFCF819F08
:101FC000C0011124805A9E4F0E94D50D8823E9F04C
:101FD000E0915E011E9FF0011124E05AFE4F408106
:101FE000518162817381848195810E94320D80913B
:101FF0005E0190E001968770992780935E01809141
:102000005E0190915F018913DACF2C960FB6F89498
:10201000DEBF0FBECDBFDF91CF911F9108956985BF
:102020007A858B859C850E94320D88CFEF92FF9236
:102030000F931F93CF93DF938C01892B89F0F12CA1
:10204000EE24E394E8012196F8018491843709F4A1
:1020500057C0A0F4823009F43EC048F48130D1F07A
:10206000DF91CF911F910F91FF90EF9008959CEF1A
:10207000980F9037A8F70E942E090AC0853709F4F7
:102080004CC09CE7980F903758F78F770E940A0A48
:102090008E0116C00E5F1F4FFE01849190E2980FD3
:1020A000983060F48770FE2D01C0FF0F8A95EAF723
:1020B0008F2F0E94C6130E94ED1302C00E942E09AA
:1020C0008F2D815008F4BECFEFE9FFE03197F1F793
:1020D00000C00000F6CF0E5F1F4FFE01849190E21A
:1020E000980F983050F48770FE2D01C0FF0F8A952D
:1020F000EAF78F2F0E94CC13DECF0E940A0AE0CFAE
:102100000E5F1F4FFE01C491C150D0F28FE99FE0D6
:102110000197F1F700C00000F7CF0E5F1F4FFE01DF
:10212000F490CECF08956093AE017093AF01809389
:10213000B0019093B1010C94E00CCF93DF9300D0E9
:1021400000D0CDB7DEB769837A838B839C8380917F
:10215000AE019091AF01A091B001B091B101298180
:102160003A814B815C81822B932BA42BB52B8093DE
:10217000AE019093AF01A093B001B093B1010F9065
:102180000F900F900F90DF91CF910C94E00CCF93B4
:10219000DF9300D000D0CDB7DEB769837A838B831D
:1021A0009C838091AE019091AF01A091B001B0915C
:1021B000B10129813A814B815C8182239323A4233D
:1021C000B5238093AE019093AF01A093B001B0937B
:1021D000B1010F900F900F900F90DF91CF910C9461
:1021E000E00CCF93DF9300D000D0CDB7DEB769838A
:1021F0007A838B839C838091AE019091AF01A091F3
:10220000B001B091B10129813A814B815C81822773
:102210009327A427B5278093AE019093AF01A09395
:10222000B001B093B1010F900F900F900F90DF911C
:10223000CF910C94E00C1092AA011092AB01109275
:10224000AC011092AD010C94E00C41E050E060E074
:1022500070E004C0440F551F661F771F8A95D2F7A0
:102260004093AA015093AB016093AC017093AD0110
:102270000C94E00C282F81E090E0A0E0B0E004C0D6
:10228000880F991FAA1FBB1F2A95D2F74091AA0158
:102290005091AB016091AC017091AD01842B952BF5
:1022A000A62BB72B8093AA019093AB01A093AC010E
:1022B000B093AD010C94E00C41E050E060E070E0C0
:1022C00004C0440F551F661F771F8A95D2F74095AB
:1022D0005095609570958091AA019091AB01A09165
:1022E000AC01B091AD0184239523A623B72380933D
:1022F000AA019093AB01A093AC01B093AD010C94F3
:10230000E00C282F81E090E0A0E0B0E004C0880F4E
:10231000991FAA1FBB1F2A95D2F74091AA0150917D
:10232000AB016091AC017091AD0184279527A62780
:10233000B7278093AA019093AB01A093AC01B0930F
:10234000AD010C94E00CCF93DF9300D000D0CDB75B
:10235000DEB769837A838B839C838091AA019091F5
:10236000AB01A091AC01B091AD0129813A814B81C3
:102370005C81822B932BA42BB52B8093AA01909385
:10238000AB01A093AC01B093AD010F900F900F90F3
:102390000F90DF91CF910C94E00CCF93DF9300D09E
:1023A00000D0CDB7DEB769837A838B839C8380911D
:1023B000AA019091AB01A091AC01B091AD0129812E
:1023C0003A814B815C8182239323A423B52380939C
:1023D000AA019093AB01A093AC01B093AD010F9013
:1023E0000F900F900F90DF91CF910C94E00CCF9352
:1023F000DF9300D000D0CDB7DEB769837A838B83BB
:102400009C838091AA019091AB01A091AC01B09105
:10241000AD0129813A814B815C8182279327A427D2
:10242000B5278093AA019093AB01A093AC01B09320
:10243000AD010F900F900F900F90DF91CF910C9402
:10244000E00C0895292F220FE22FE90FEE0FE80F7D
:102450008E2F877041E001C0440F8A95EAF7E69518
:10246000E695E69585E0E89FF0011124EA56FE4FD7
:1024700030E020E070E05191DF011197CB01022E96
:1024800002C0969587950A94E2F781708195852719
:10249000842385278C932F5F3F4F2530310559F7D3
:1024A0000895292F220FE22FE90FEE0FE80F9E2F3C
:1024B0009770E695E695E69585E0E89FF001112492
:1024C000EA56FE4F50E040E080E0219130E0092ED6
:1024D00002C0369527950A94E2F721703327042E1F
:1024E00001C0220F0A94EAF7822B4F5F5F4F4530FD
:1024F000510559F70895BF92CF92DF92EF92FF9264
:102500000F931F93CF93DF938C01C090AA01D090BB
:10251000AB01E090AC01F090AD018091AE019091E3
:10252000AF01A091B001B091B101C82AD92AEA2A1D
:10253000FB2ACFE1D0E0BC2ED701C6010C2E04C08F
:10254000B695A795979587950A94D2F780FD0EC00A
:10255000219788F7B12C8B2DDF91CF911F910F918F
:10256000FF90EF90DF90CF90BF900895B8018C2F2F
:102570000E94C204019761F3EECFCF93DF93D82F6F
:10258000C92F0E947B126D2F7C2FDF91CF910C946D
:10259000C2041F93CF93DF93162FD72F90915D0125
:1025A000992339F0862F972FDF91CF911F910C94AB
:1025B000BD12882391F0862F972F0E947B12C82F7F
:1025C000682F812F9D2F0E942212612F7D2F8C2F2B
:1025D000DF91CF911F910C94C204862F972F0E94F8
:1025E0005112C82FF2CF8091B201859585958595BE
:1025F00008958091B2018770089598E0899F9001B5
:102600001124622B6093B2010C943A119091B201A3
:10261000809589238093B201282F277061F4282F99
:10262000082E000C330B9217130629F0859585951B
:1026300085950C945C1108959091B201977081E09A
:1026400009F480E00895909112019923E1F09091AE
:10265000080297FF18C0E82FE695E695E695EF315A
:1026600039F12091000130910101E20FF32FF11DAA
:10267000877021E030E001C0220F8A95EAF781815E
:10268000822B818308952091000130910101F9018D
:1026900032969FEF40E05191851751F09F3F19F41A
:1026A000511101C0942F4F5F4E31A9F79F3F09F49C
:1026B0000895290F311D97FD3A95F90182830895F8
:1026C00090911201992301F19091080297FF1CC08B
:1026D000E82FE695E695E695EF3139F12091000176
:1026E00030910101E20FF32FF11D877021E030E0FE
:1026F000A90102C0440F551F8A95E2F7CA018095CF
:1027000091818923818308952091000130910101F5
:10271000F9013296205E3F4F9191891303C0DF018A
:1027200011971C92E217F307B9F7089581E090E042
:10273000E0910001F0910101E80FF91F108201966C
:1027400080329105A9F708959091D601982B909326
:10275000D6010895982F90958091D6018923809372
:10276000D60108951092D60108959091D501982B25
:102770009093D5010895982F90958091D501892344
:102780008093D50108951092D50108959091D401B8
:10279000982B9093D4010895982F90958091D4010F
:1027A00089238093D40108951092D40108958093D1
:1027B000B30108951092B301089520910001309162
:1027C0000101F9013196205E3F4F80E09191911116
:1027D0008F5FE217F307D1F70895E0910001F091C0
:1027E00001018091D6018083E0910001F091010107
:1027F00080819091D501892B8083E0910001F09137
:10280000010180819091D401892B80839091B30143
:10281000992361F0E0910001F09101018081892B01
:1028200080830E94DD1381111092B3018091000119
:10283000909101010C9418086DEE7EEF90E080E01D
:102840000E948B2160E082E090E00E94792160E0AC
:1028500083E090E00E94792160E084E090E00E94B3
:10286000792160E085E090E00C94792190E080E0AF
:102870000E9473219C0181E02D3E3E4F09F080E0D3
:10288000089582E090E00C946B21682F82E090E044
:102890000C94792183E090E00C946B21682F83E005
:1028A00090E00C94792184E090E00C946B21682FE7
:1028B00084E090E00C94792180910E02843039F10B
:1028C0001092D80188E190E020E40FB6F894A89522
:1028D000809360000FBE2093600080E00E94A304FC
:1028E00083B7817F846083BF83B7816083BF78941F
:1028F000889583B78E7F83BF0FB6F894A895809193
:102900006000886180936000109260000FBE08959F
:1029100008950895CF930E9488140E9459070E9439
:102920008914C0E08C2F0E940008811105C0CF5F80
:10293000C530C1F7CF91089581E0FCCF0E94F40C1F
:102940000E940C080C94A3041F921FB61F9211241E
:102950008F939F93AF93BF938091D801811113C040
:102960008091040290910502A0910602B0910702A5
:102970004196A11DB11D8093040290930502A0937E
:102980000602B0930702BF91AF919F918F911F9064
:102990001FBE1F90189582E084BD93E095BD9AEF0D
:1029A00097BD80936E0008952FB7F894809104022C
:1029B00090910502A0910602B09107022FBF0895E1
:1029C000CF92DF92EF92FF929C014FB7F8948091E3
:1029D000040290910502A0910602B09107024FBF38
:1029E0006C017D01EE24FF24A90170E060E0C416B3
:1029F000D506E606F70638F0821B930BFF90EF90A2
:102A0000DF90CF9008950197F7CF1F921FB61F92C6
:102A100011248F939F93AF93BF9380910402909161
:102A20000502A0910602B09107020196A11DB11DF9
:102A30008093040290930502A0930602B0930702CC
:102A4000BF91AF919F918F911F901FBE1F901895BE
:102A50000E94141DF8942FEF87EA91E621508040E0
:102A60009040E1F700C0000087E090EBDC0180932C
:102A7000170290931802A0931902B0931A0288E1EA
:102A80009CE00FB6F894A895809360000FBE9093D9
:102A90006000FFCFCF92DF92EF92FF920F931F93D0
:102AA000CF93C0E0E82EF12C8C2F0E94000810E09C
:102AB00000E0C82ED12CC601002E02C09595879546
:102AC0000A94E2F780FF11C0602F7C2F80E00E9403
:102AD000A604E816F90649F481E0CF911F910F9101
:102AE000FF90EF90DF90CF9008950F5F1F4F06305B
:102AF000110509F7CF5FC530B9F680E0EECFCF936F
:102B0000C82F8CE20E944A15882321F08C2FCF9188
:102B10000C944A1580E0CF910895CF93DF9300D0B5
:102B200000D0CDB7DEB70E943614811102C00E94DA
:102B30001C1495E6998308C00E9459078FE39CE90D
:102B40000197F1F700C00000A981A150A983A1114C
:102B5000F3CF89E20E947F15811110C18AE20E94A1
:102B60007F1581110E941C1485E00E947F15811140
:102B70000E9428150E9441148093D70187E00E948B
:102B80007F15882371F08BE10E947F15882309F45B
:102B9000D1C09091D701892F8D7F91FF8260809362
:102BA000D7018091D7010E9445140E94531490E0F0
:102BB000909309028093080280EE0E947F1588237B
:102BC00041F090910802892F8E7F90FF8160809361
:102BD000080289E30E947F15882341F09091080242
:102BE000892F8D7F91FF82608093080282EE0E9480
:102BF0007F15882341F090910802892F8B7F92FFE7
:102C000084608093080286EE0E947F15882341F03D
:102C100090910802892F877F93FF88608093080234
:102C200083EE0E947F15882341F090910802892F3E
:102C30008F7E94FF80618093080285E30E947F1558
:102C4000882341F090910802892F8F7D95FF806243
:102C50008093080281E30E947F15882341F09091C0
:102C60000802892F8F7B96FF80648093080281E1A0
:102C70000E947F15882341F090910802892F97FBCD
:102C800087F9805880930802809108020E945714A7
:102C900087E20E947F1589838EE10E947F15882339
:102CA00019F0B981B260B9838FE10E947F15882342
:102CB00019F029812460298380E20E947F158823EE
:102CC00019F039813860398381E20E947F158823A9
:102CD00019F049814061498382E20E947F1588236F
:102CE00019F059815062598383E20E947F1588232D
:102CF00019F089818064898384E20E947F1588238A
:102D0000B1F199819068998389810E944E1439812B
:102D1000232F30E050E040E029833A834B835C83EB
:102D2000CA01B9010F900F900F900F90DF91CF91D2
:102D30000C9493108EE00E947F15882339F09091B7
:102D4000D701892F8B7F92FF846029CF80E10E9479
:102D50007F159091D701882329F0892F877F93FFD2
:102D600088601DCF892F8E7F90FF816018CFA98149
:102D7000A111CACF0E944A14282FCBCF0F900F90D9
:102D80000F900F90DF91CF9108958091DB0180FF2C
:102D900012C06091050185E0689FB001112475950E
:102DA00067957595679560387105A8F5611571058A
:102DB000A1F1862F089581FF09C06091050185E08A
:102DC000689FB001112475956795EDCF609105015D
:102DD00082FD0AC08091DC018823D1F0909104012A
:102DE00060910501891728F085E0689FB0011124E2
:102DF000DACF869FB001112485E0869F9001879FDE
:102E0000300D1124692F70E0C9010E943D21CBCF04
:102E100065E070E0CECF8FE7089581E0089580915E
:102E2000DB0180FF0CC06091030170E07595679530
:102E3000759567956115710549F1862F089581FF94
:102E400006C06091030170E075956795F3CF6091BE
:102E5000030182FD0BC09091DC019923A1F06091E8
:102E6000020180910301961738F0682F70E06038F6
:102E7000710500F38FE70895899FC001112470E068
:102E80000E943D21F4CF61E070E0D7CF81E008954A
:102E9000803F31F40E94C51681958093DF0108952B
:102EA000813F19F40E94C516F8CF823F31F40E9489
:102EB000C51681958093DE010895833F19F40E9421
:102EC000C516F8CF893F29F40E940F178093E001BF
:102ED00008958A3F21F40E940F178195F7CF8B3F09
:102EE00031F40E940F1781958093E10108958C3F82
:102EF00019F40E940F17F8CF843F31F48091DD015F
:102F000081608093DD010895853F21F48091DD018A
:102F10008260F7CF863F21F48091DD018460F1CF9C
:102F2000873F21F48091DD018860EBCF883F21F459
:102F30008091DD018061E5CF8D3F31F48091DB012F
:102F400081608093DB0108958E3F21F48091DB0145
:102F50008260F7CF8F3FB9F78091DB018460F1CFBA
:102F60009091DE01803F41F48091DF0187FD109256
:102F7000DF01992371F00895813F29F48091DF01E9
:102F80001816ACF3F6CF823F81F497FFF2CF109280
:102F9000DE018091DF019091E001892B9091E101A8
:102FA000892B49F71092DC010895833F19F4191613
:102FB00074F3DFCF893F39F48091E0011816CCF625
:102FC0001092E001D6CF8A3F29F48091E00187FF7B
:102FD000D0CFF6CF8B3F39F48091E10187FFC9CF85
:102FE0001092E101C6CF8C3F29F48091E1011816BF
:102FF000BCF3BFCF843F31F48091DD018E7F80939D
:10300000DD01B7CF853F21F48091DD018D7FF7CFC2
:10301000863F21F48091DD018B7FF1CF873F21F442
:103020008091DD01877FEBCF883F21F48091DD0126
:103030008F7EE5CF8D3F31F48091DB018E7F8093D1
:10304000DB0197CF8E3F21F48091DB018D7FF7CF9D
:103050008F3F09F08ECF8091DB018B7FF0CF8DED1C
:1030600091E00E9423080E94D4149093DA01809387
:10307000D90108951F93CF93DF9300D000D000D0E3
:10308000CDB7DEB78091D9019091DA010E94E014AA
:10309000AC018091DC012091060130E0811106C075
:1030A000209107019AE0299F9001112442175307AC
:1030B00088F02091DE01A091DF01A9831091E00149
:1030C000B091E101BE8321110FC09A2F912B9B2B50
:1030D00009F0B2C026960FB6F894DEBF0FBECDBF82
:1030E000DF91CF911F9108958F3F19F08F5F8093EB
:1030F000DC01121624F40E94C5168093DE01809133
:10310000DE0187FF05C00E94C51681958093DE0110
:103110002981121624F40E94C5168093DF01809144
:10312000DF0187FF05C00E94C51681958093DF01EE
:103130008091DE01882309F455C03091DF013D8381
:10314000332309F44FC0282F880F330B440B550B42
:1031500029833A834B835C83CA01B9010E944420CE
:1031600023E333E343E35FE369837A838B839C83C5
:1031700069817A818B819C810E94A82069837A83EE
:103180008B839C8369817A818B819C810E940C2036
:103190006093DE018D81082E000C990BAA0BBB0BEE
:1031A00089839A83AB83BC83BC01CD010E944420F8
:1031B00023E333E343E35FE369837A838B839C8375
:1031C00069817A818B819C810E94A82069837A839E
:1031D0008B839C8369817A818B819C810E940C20E6
:1031E0006093DF01111624F40E940F178093E00111
:1031F0008091E00187FF05C00E940F1781958093A1
:10320000E0019E81191624F40E940F178093E101BA
:103210008091E10187FF05C00E940F17819580937F
:10322000E10126960FB6F894DEBF0FBECDBFDF9149
:10323000CF911F910C942F188F3F09F057CF68CF73
:1032400085E0EDEDF1E0DF011D928A95E9F710923E
:10325000DC011092DB010895809102020895CF9362
:10326000DF9300D00F92CDB7DEB720910E0224304D
:1032700019F523E029838A839B832093E9008FEF4C
:103280009091E800815095FD06C095ED9A95F1F773
:1032900000008111F5CF8091E80085FF0DC050E05E
:1032A00040E063E070E0CE0101960E948C1B8091AB
:1032B000E8008E778093E8000F900F900F90DF91D9
:1032C000CF910895CF93DF9300D00F92CDB7DEB7A3
:1032D0009C0180910E02843031F582E08983205870
:1032E00031093B832A8383E08093E9008FEF90913B
:1032F000E800815095FD06C095ED9A95F1F7000024
:103300008111F5CF8091E80085FF0DC050E040E0CD
:1033100063E070E0CE0101960E948C1B8091E80072
:103320008E778093E8000F900F900F90DF91CF91F0
:10333000089520910E022430F1F422E02093E90058
:103340002FEF3091E800215035FD06C035ED3A955C
:10335000F1F700002111F5CF2091E80025FF0BC007
:1033600050E040E065E070E00E948C1B8091E80036
:103370008E778093E8000895CF93DF93D82FC92FDD
:1033800080910E028430F1F4909112019923E9F0BA
:103390009091080297FF19C08093E9008FEF9091F8
:1033A000E800815095FD06C095E19A95F1F700007F
:1033B0008111F5CF8091E80050E040E060E270E0DC
:1033C00085FD1AC0DF91CF91089581E08093E900D7
:1033D0008FEF9091E800815095FD06C095ED9A958C
:1033E000F1F700008111F5CF8091E80085FFEACF69
:1033F00050E040E068E070E08D2F9C2F0E948C1B15
:103400008091E8008E778093E80080E2ED2FFC2F1A
:10341000A2EEB1E001900D928A95E1F7D3CF8091B1
:103420000D02811109C00E94141D0E94711D80911E
:10343000E20084608093E200089510920D020895E6
:10344000089508950C949E1442E061EC81E00E947E
:10345000901C42E061EC82E00E94901C42E061EC32
:1034600083E00E94901C42E261EC84E00C94901C8A
:1034700080911002893089F148F4823009F494C0B7
:10348000833009F44FC0813041F008958A3009F447
:103490007BC08B3009F461C0089580910F02813A9E
:1034A00009F03FC08091E800877F8093E800809119
:1034B000130290911402892B61F460E282EE91E094
:1034C00070E00E94DB1B8091E8008B778093E8001E
:1034D000089560E090E080E0F3CF80910F028132A8
:1034E00001F58091130290911402009711F0039757
:1034F000C1F48091E800877F8093E8008091E80024
:1035000082FF0BC08091F100809302028091E8005D
:103510008B778093E8000C94C41C80910E0281117B
:10352000EDCF089580910F02813AD9F7809113026F
:1035300090911402892BA9F78091E800877F8093EE
:10354000E8008091E80080FFFCCF80911201809319
:10355000F1008091E8008E77DCCF80910F028132FC
:1035600001F78091130290911402892BD1F680917A
:10357000E800877F8093E8000E94C41C80911102BC
:10358000809312010C94F40C80910F02813249F661
:103590008091E800877F8093E8000E94C41C80919E
:1035A000120280930302089580910F02813A09F07C
:1035B000B8CF8091E800877F8093E8008091E80091
:1035C00080FFFCCF80910302C2CF84B7877F84BF86
:1035D0000FB6F894A8958091600088618093600090
:1035E000109260000FBE80E880936100109261002D
:1035F0000E945B080E94141D0E94711D8091E200D0
:1036000084608093E20078940E94F11F0E945D081C
:1036100088E091E00E94070880910E02853019F041
:103620000E946308F9CF0E945C1480910C028823E9
:1036300099F30E948A14882379F30E94761BECCFB9
:103640009C01DA01892F992783309105C1F068F434
:103650008130910509F445C0029761F48DE690E050
:103660002CE934E02D933C93089581329105E1F0EB
:10367000829739F190E080E030E020E0F3CFC9019B
:103680009927213059F08230910559F0E8E9F4E0AA
:10369000892B81F7849190E09F01E4CFE0E8F4E08A
:1036A000F9CFECE6F4E0F6CF643020F7E62FF0E057
:1036B000EE0FFF1FE65DFE4F2081318189E090E033
:1036C000D1CF6430B8F670E0FB01EE0FFF1FEE5D66
:1036D000FE4F20813181625E7E4FFB01808190E050
:1036E000C1CF82E190E029E035E0BCCF80E189BD27
:1036F00082E189BD09B400FEFDCF8091D8008F7DA5
:103700008093D8008091E00082608093E0008091F7
:10371000E00081FDFCCF0895AF92BF92CF92DF927F
:10372000FF920F931F93CF93DF936C01EB018A01FC
:103730000E94E31CF82E811123C00115110539F0F8
:10374000F80180819181C81BD90BC80ED91EB12CFC
:10375000A12C2097A9F08091E80085FD22C08091DE
:10376000E8008E778093E80001151105A1F0F801BB
:1037700080819181A80EB91EB182A08285E0F82EC9
:103780008F2DDF91CF911F910F91FF90DF90CF9000
:10379000BF90AF9008950E94E31C8823D1F2F82EC9
:1037A000EFCFF60181916F018093F1002197FFEF38
:1037B000AF1ABF0ACECFFC01CB0120911502309188
:1037C00016022617370790F0009729F42091E80099
:1037D0002E772093E80040E0009751F4411108C093
:1037E0008091E80082FF31C080E00895C901F3CFE5
:1037F00020910E022223A9F12530A9F12091E800A1
:1038000023FD2DC02091E80022FDEACF2091E800A1
:1038100020FFE2CF3091F3002091F200009719F0E1
:103820002830310558F041E02830310509F040E0FA
:103830002091E8002E772093E800CECF419140936D
:10384000F10001972F5F3F4FE9CF80910E0288234F
:1038500041F0853041F08091E80083FFC1CF81E0E5
:10386000089582E0089583E00895FC01CB01209142
:103870001502309116022617370790F0009729F4A9
:103880002091E8002E772093E80040E0009751F463
:10389000411108C08091E80082FF32C080E00895A5
:1038A000C901F3CF20910E022223B1F12530B1F1ED
:1038B0002091E80023FD2EC02091E80022FDEACFF0
:1038C0002091E80020FFE2CF3091F3002091F20038
:1038D000009719F02830310558F041E028303105C3
:1038E00009F040E02091E8002E772093E800CECF49
:1038F00044914093F100319601972F5F3F4FE8CFFD
:1039000080910E02882341F0853041F08091E800DB
:1039100083FFC0CF81E0089582E0089583E0089599
:10392000982F973028F08F708093E90081E00895F8
:103930009093E900242F762F50E0981731F0709182
:10394000EC002091ED005091F00021FD02C09F5F3E
:10395000E8CF3091EB003E7F3093EB003091ED00EB
:103960003D7F3093ED003091EB0031603093EB0000
:103970007093EC002093ED005093F0002091EE0046
:1039800027FDE5CF80E0089580910F0287FF13C0E7
:103990008091E80082FF06C08091E8008B778093D9
:1039A000E80004C080910E028111F2CF0895809149
:1039B0000E028823D9F38091E80080FFF8CF809130
:1039C000E8008E77ECCF2091E4003091E50095E699
:1039D000A9012091EC00822F817020FF06C0809108
:1039E000E80080FF06C080E008952091E80022FDF5
:1039F0001AC080910E02882389F0853089F0809169
:103A0000EB0085FD0FC02091E4003091E5004217E6
:103A10005307F9F29150E1F684E0089582E00895A9
:103A200083E0089581E008950E94821D0E948A1D0E
:103A3000E0EEF0E0808181608083E8EDF0E080815D
:103A40008F77808319BCA7EDB0E08C918E7F8C932B
:103A500080818F7E808310920D0208950F931F93B3
:103A6000CF93DF930E94821D0E948A1DC8EDD0E093
:103A700088818F77888388818068888388818F7D1B
:103A8000888319BC10920E0210920A0210920C0246
:103A900010920B0200EE10E0F80180818B7F808392
:103AA00088818160888342E060E080E00E94901C11
:103AB000E1EEF0E080818E7F8083E2EEF0E08081B5
:103AC00081608083808188608083F80180818E7F1F
:103AD0008083888180618883DF91CF911F910F91CE
:103AE0000895E8EDF0E080818F7E8083E7EDF0E0DF
:103AF00080818160808384E082BF81E080930D02B9
:103B00000C942E1DE8EDF0E080818E7F8083109272
:103B1000E20008951092DA001092E10008951F92D9
:103B20000F920FB60F9211242F933F934F935F93F1
:103B30006F937F938F939F93AF93BF93EF93FF9375
:103B40008091E10082FF0BC08091E20082FF07C0FC
:103B50008091E1008B7F8093E1000E94F01F8091B3
:103B6000DA0080FF19C08091D80080FF15C08091D5
:103B7000DA008E7F8093DA008091D90080FF94C0B4
:103B800080E189BD82E189BD09B400FEFDCF81E0FD
:103B900080930E020E940F1A8091E10080FF19C0ED
:103BA0008091E20080FF15C08091E2008E7F8093BB
:103BB000E2008091E20080618093E2008091D80071
:103BC00080628093D80019BC85E080930E020E9429
:103BD000211A8091E10084FF29C08091E20084FFD6
:103BE00025C080E189BD82E189BD09B400FEFDCF19
:103BF0008091D8008F7D8093D8008091E1008F7EE6
:103C00008093E1008091E2008F7E8093E2008091BA
:103C1000E20081608093E20080910A02882309F427
:103C200049C084E080930E020E94221A8091E10034
:103C300083FF29C08091E20083FF25C08091E100CD
:103C4000877F8093E10082E080930E0210920A0247
:103C50008091E1008E7F8093E1008091E2008E7F71
:103C60008093E2008091E20080618093E20042E074
:103C700060E080E00E94901C8091F000886080935A
:103C8000F0000E94201AFF91EF91BF91AF919F9198
:103C90008F917F916F915F914F913F912F910F90F5
:103CA0000FBE0F901F90189519BC10920E020E9423
:103CB0001D1A72CF8091E30087FD02C081E0B2CF70
:103CC00083E0B0CF1F920F920FB60F9211242F9363
:103CD0003F934F935F936F937F938F939F93AF9394
:103CE000BF93CF93DF93EF93FF93D091E900DF7001
:103CF0008091EC00C82FC17080FDC0E81092E900EF
:103D00008091F000877F8093F00078940E94A61E37
:103D10001092E9008091F00088608093F000CD2B34
:103D2000CF70C093E900FF91EF91DF91CF91BF91E8
:103D3000AF919F918F917F916F915F914F913F9143
:103D40002F910F900FBE0F901F9018951F93CF9338
:103D5000DF93CDB7DEB7AA970FB6F894DEBF0FBEDC
:103D6000CDBF8FE092E0FC0101962091F10020830D
:103D700022E087319207B9F70E94381A8091E80053
:103D800083FF16C180910F02909110029A3008F0C3
:103D90000FC1E92FF0E0EB53FE4D0C945121803818
:103DA00081F0823809F004C1809113028F708093F2
:103DB000E9008091EB0085FB882780F91092E900EB
:103DC00006C080910B0290910C029111826090913B
:103DD000E800977F9093E8008093F1001092F10043
:103DE0008091E8008E77E0C0882309F4CEC082304D
:103DF00009F0DEC0809111028111D1C080911302BF
:103E00008F7009F4D5C08093E9002091EB0020FF6A
:103E1000C6C0933031F48091EB0080628093EB0058
:103E2000BEC09091EB0090619093EB0021E030E0F8
:103E300001C0220F8A95EAF72093EA001092EA0067
:103E40008091EB008860EACF8111B2C0109111021D
:103E50001F778091E3008078812B8093E30080912D
:103E6000E800877F8093E8000E94C41C8091E800EE
:103E700080FFFCCF8091E30080688093E30082E0C4
:103E8000111183E080930E0293C08058823008F0B5
:103E90008FC080911102909112028C3D23E0920715
:103EA000A1F583E08A838AE289834FB7F894DE0123
:103EB000139620E03EE051E2E32FF0E050935700EC
:103EC000E49120FF03C0E295EF703F5FEF708E2F0B
:103ED00090E0EA30C0F0C7968D939D932F5F243118
:103EE00059F74FBF8091E800877F8093E8006AE22E
:103EF00070E0CE0101960E94DB1B8091E8008B7779
:103F00008093E80055C0C096E7CFAE014F5F5F4F8A
:103F1000609113020E94201BBC01892B09F448C048
:103F20008091E800877F8093E80089819A810E94D0
:103F3000351CE3CF8038E1F58091E800877F8093DE
:103F4000E80080910A028093F1004ACF811130C0CD
:103F500090911102923060F58091E800877F809304
:103F6000E80090930A020E94C41C80910A028823F0
:103F700011F084E005C08091E30087FDFACF81E075
:103F800080930E020E94241A13C080911102813086
:103F900079F481E0933009F080E080930C02109274
:103FA000E9008091E800877F8093E8000E94C41CAC
:103FB0008091E80083FF0AC08091E800877F8093AA
:103FC000E8008091EB0080628093EB00AA960FB628
:103FD000F894DEBF0FBECDBFDF91CF911F91089542
:103FE0000895CF9380910E028823A1F0C091E9003B
:103FF000CF709091EC00892F817090FD80E8C82BE4
:104000001092E9008091E80083FD0E94A61ECF7007
:10401000C093E900CF9108950E9413206894B111D4
:104020000C94A22008950E94872088F09F5798F052
:10403000B92F9927B751B0F0E1F0660F771F881FAD
:10404000991F1AF0BA95C9F714C0B13091F00E94C7
:10405000A120B1E008950C94A120672F782F882724
:10406000B85F39F0B93FCCF3869577956795B395EE
:10407000D9F73EF490958095709561957F4F8F4F5D
:104080009F4F0895E89409C097FB3EF49095809562
:10409000709561957F4F8F4F9F4F9923A9F0F92F0E
:1040A00096E9BB279395F695879577956795B7958C
:1040B000F111F8CFFAF4BB0F11F460FF1BC06F5F72
:1040C0007F4F8F4F9F4F16C0882311F096E911C084
:1040D000772321F09EE8872F762F05C0662371F0A5
:1040E00096E8862F70E060E02AF09A95660F771FB9
:1040F000881FDAF7880F9695879597F9089557FDE9
:104100009058440F551F59F05F3F71F04795880F45
:1041100097FB991F61F09F3F79F0879508951216DC
:1041200013061406551FF2CF4695F1DF08C0161688
:1041300017061806991FF1CF869571056105089439
:104140000895E894BB2766277727CB0197F9089550
:104150000E94BB200C942C210E941E2138F00E944A
:10416000252120F0952311F00C9415210C941B218E
:1041700011240C94A2200E947F2070F3959FC1F31C
:10418000950F50E0551F629FF001729FBB27F00D05
:10419000B11D639FAA27F00DB11DAA1F649F66275A
:1041A000B00DA11D661F829F2227B00DA11D621FA9
:1041B000739FB00DA11D621F839FA00D611D221F63
:1041C000749F3327A00D611D231F849F600D211D47
:1041D000822F762F6A2F11249F5750409AF0F1F0CA
:1041E00088234AF0EE0FFF1FBB1F661F771F881F33
:1041F00091505040A9F79E3F510580F00C94152135
:104200000C94A2205F3FE4F3983ED4F38695779513
:104210006795B795F795E7959F5FC1F7FE2B880FD8
:10422000911D9695879597F9089597F99F6780E86E
:1042300070E060E008959FEF80EC089500240A94F8
:104240001616170618060906089500240A94121671
:104250001306140605060895092E0394000C11F4A4
:10426000882352F0BB0F40F4BF2B11F460FF04C051
:104270006F5F7F4F8F4F9F4F089597FB072E16F468
:10428000009407D077FD09D00E94572107FC05D084
:104290003EF4909581959F4F0895709561957F4F5D
:1042A0000895EE0FFF1F0590F491E02D0994AA1BCD
:1042B000BB1B51E107C0AA1FBB1FA617B70710F011
:1042C000A61BB70B881F991F5A95A9F78095909543
:1042D000BC01CD010895F999FECF92BD81BDF89A38
:1042E000992780B50895A8E1B0E042E050E00C9431
:1042F0009321262FF999FECF92BD81BDF89A01979F
:1043000000B4021639F01FBA20BD0FB6F894FA9A1D
:10431000F99A0FBE08950196272F0E947A210C94D6
:104320007921DC01CB01FC01F999FECF06C0F2BD79
:10433000E1BDF89A319600B40D9241505040B8F763
:104340000895F894FFCF0E041A041E0422042604D4
:104350002A042E04320436043A043E04420446047D
:104360004A044E04520456045A049F0A9F0AF70A4C
:10437000F70A3B0B570BCF0ACF0A620BCF0A2A0C66
:104380002A0C950CCF0ACF0A9E0CCF1EF41ED81F04
:0E439000F41ED81F241F451FD81F9A1FA61FFA
:10439E00B4012808140A321E2C19BC199919621975
:1043AE002F1901F4F5F6F73133946697C634404D64
:1043BE003639D7058A0554051B05AE04C704E0043B
:0243CE00F904F0
:00000001FF
