:100000000C9481010C949E010C949E010C949E0111
:100010000C949E010C949E010C949E010C949E01E4
:100020000C949E010C949E010C94661B0C943A1C3B
:100030000C9486160C949E010C949E010C949E01C7
:100040000C949E010C949E010C949E010C949E01B4
:100050000C949E010C940D170C949E010C949E011F
:100060000C949E010C949E010C949E010C949E0194
:100070000C949E010C949E010C949E010C949E0184
:100080000C949E010C949E010C949E010C949E0174
:100090000C949E010C949E010C949E010C949E0164
:1000A0000C949E010C949E010C949E0114211B4201
:1000B00009001C0011000F000400080019000B00CB
:1000C0000C0038411D00070017002C000E001334EF
:1000D0001A0006000A001800100028281600150053
:1000E00005280D001200E5001E00E3003700230282
:1000F000440042002F00200034003F002502010090
:100100003500360022004300410027021F00330063
:100110002D00240245003100300021002E00400057
:100120002602E5001E0201003D0023004A004F00A8
:10013000E20020024C0050002500E700E0003C00F7
:1001400022022B00520027001F0229003E0024003B
:100150004D0028183B0021022A00510026002A00E9
:100160000100010001000100010001000100010087
:100170000100010001000100010001000100010077
:100180000100010001000100010001000100010067
:100190000100010001000100010001000C036B00DF
:1001A000610070007000610000000E036B003300FE
:1001B0007000650074006100000004030904090276
:1001C0003B00020100A0FA09040000010301010044
:1001D00009211101000122400007058103080001E7
:1001E000090401000103000000092111010001229E
:1001F000B600070582032000011201000200000082
:1002000008336B010001000102000105010902A190
:100210000185020901A10005091901290815002518
:100220000195087501810205010930093115812503
:100230007F95027508810609381581257F9501751E
:10024000088106050C0A38021581257F950175087D
:100250008106C0C005010980A101850319012AB7E3
:1002600000150126B700950175108100C0050C0925
:1002700001A101850419012AA002150126A00295F9
:100280000175108100C005010906A1018506050759
:1002900019E029E715002501950875018102050778
:1002A000190029EF1500250195F075018102050857
:1002B00019012905950575019102950175039101B3
:1002C000C005010906A101050719E029E715002568
:1002D00001950875018102950175088101050719CD
:1002E0000029FF150026FF00950675088100050806
:1002F0001901290595057501910295017503910173
:10030000C00011241FBECFEFDAE0DEBFCDBF11E089
:10031000A0E0B1E0EEEBFDE302C005900D92A03944
:10032000B107D9F722E0A0E9B1E001C01D92A339DD
:10033000B207E1F70E94AD100C949E1E0C940000D1
:100340008430B8F46530A8F4463098F450E096E074
:10035000699F400D511D1124FA019EE1899FE00D16
:10036000F11D1124EE0FFF1FE455FF4F859194916D
:10037000089581E090E008950E94A001089581E031
:10038000089581E008950E94C101089508950E9492
:10039000C6010895A5E0B0E0E0EDF1E00C940A1E7E
:1003A00049835A833091970189819A81311119C00B
:1003B000662399F0222389F00E946B07182F682F7B
:1003C00089819A810E94470769817A81812F0E94E1
:1003D000340E2596E3E00C94261E0E945907182F30
:1003E000F3CF0E946B0769817A81F1CFFC01262F40
:1003F000408151816281738184810E94CA01089584
:1004000081E00895CF93DF93EC0160E00E94F60154
:10041000BE010E94C701DF91CF91089508950E9407
:1004200016060E940E022FEF84E39CE021508040CC
:100430009040E1F700C0000008950E940F020E9462
:10044000311708950E940F020E94421708950F93DA
:100450001F93CF93DF938C0161E00E94F601EC01C2
:10046000B8010E94C301811106C080E0DF91CF91E5
:100470001F910F910895B801CE010E94A8148823FE
:10048000A1F3B801CE010E943E13882371F3B80195
:10049000CE010E941A14882341F3F8018281882337
:1004A00061F0C330FCE7DF07E9F058F4C115ECE771
:1004B000DE07A9F0C130DC47B9F0C8010E94BF01D6
:1004C000D5CFCB358CE7D807A9F0CC35ECE7DE07E4
:1004D00071F0CA35DC4789F70E949C0BEECF0E9471
:1004E0001D02C3CF0E94A40B0E942202BECF0E9415
:1004F000920BE3CF0E94A00BE0CF0E9463160E94F4
:10050000A40208950E94A8020E9468160895089502
:1005100081E008950895CF93DF93D82F0E94880239
:10052000C82F882319F08D2F0E948A028C2FDF910B
:10053000CF9108950895CF93C82F0E9487028C2FE2
:100540000E948B02CF91089580E00E949B02089543
:100550000E94F6140E949B020895CF930E94F61405
:10056000C82F809192018C1779F0C09392010E945C
:10057000F216609393017093940180939501909388
:1005800096018C2F0E949B02CF910895ABE0B0E0C2
:10059000ECECF2E00C940B1E4F83588769877A8746
:1005A0008B8761110E94DD0A1E821D8285E0FE019B
:1005B0003796DE01119601900D928A95E1F78C81B4
:1005C0009D81892B61F449815A816B817C818D8168
:1005D0009E810E94050A2B96E2E00C94271E8981D9
:1005E0009A8189238F3F79F3CE0101960E94000200
:1005F0008111E9CFF0CFFC01808191810E949D079C
:100600000895662329F00E9431110E940412089572
:100610000E948B11FACFCF93C82F8823B9F08CEFAB
:100620008C0F813AA8F46C2F809100019091010108
:100630000E948915882329F08C2F0E949D0A0E9410
:10064000FE0A8C2F0E94950A0E94FE0ACF910895FF
:1006500080E28C0F883048F4C77081E001C0880FB9
:10066000CA95EAF70E94C00AEFCFEBE5EC0FE33042
:1006700040F4F0E0E75BFE4F808190E00E942B1594
:10068000E5CFE8E5EC0FEB3150F4F0E0EE0FFF1FA3
:10069000ED5EFE4F808191810E945015D7CF83E39C
:1006A0008C0F833198F661E08C2F0E940103CECF2E
:1006B000882381F19CEF980F913A28F40E949D0ABB
:1006C0000E94FE0A089590E2980F983050F48770C7
:1006D00091E001C0990F8A95EAF7892F0E94C60A16
:1006E000EFCF9BE5980F933028F490E080E00E94D4
:1006F0002B15089598E5980F9B3128F490E080E041
:100700000E945015089593E3980F933118F460E018
:100710000E94010308951F93CF93DF93182FEB01DD
:100720000E940B03209739F4812F0E945803DF9118
:10073000CF911F9108958FE99FE00197F1F700C0D5
:1007400000002197EFCF70E060E0893311F460E59D
:1007500070E00E948B030895882321F00E94C00A54
:100760000E94FE0A0895882321F00E94C60A0E9472
:10077000FE0A0895B0E0A0E0E0ECF3E00C94041E63
:100780006C01D62FC72FFC011281058102950F70D5
:100790000E94B60AE82E8823E9F0E12E1123D1F059
:1007A0008C2F807F803451F080E28D0F8830F8F0FC
:1007B000011104C08C2F807E8032C9F080917702B5
:1007C00082FF15C082E00E94610B0E94B60A91E090
:1007D000E82EE926BC2EB2949FE0B922FBE0FB157F
:1007E000B8F1EB2DF0E0E056F14E0C94F51DE12C44
:1007F000F1CF0C2F0F70C07F11F00295007F1123F5
:1008000099F0002359F080E28D0F883010F0D1115B
:1008100007C0802F0E94C00A0E94FE0A8D2F63C06D
:10082000802F0E94D00AF8CF8D2F0E9458030023FA
:1008300079F080E28D0F883010F0D11104C0802F44
:100840000E94C60A03C0802F0E94D60A0E94FE0A98
:100850002B2D2850330B2430310520F40E94F61440
:100860000E949B02EE2089F00E94B20A80FD0DC01A
:10087000F60112820E94AC0A0E94A506C6010E94DF
:10088000D6050E94AC0A0E94B506CDB7DEB7E9E0F6
:100890000C94201E2C2F2F70F22EC07FC03219F026
:1008A000F29480EFF822DD2381F0D13009F449C0C1
:1008B000112309F451C0002309F448C0F6018581D1
:1008C00080FFACCF8F70858341C08091770282FD1D
:1008D00015C0112359F0FF2029F08F2D0E94C00A66
:1008E0000E94FE0A80E00E940B03B2CF80E00E94CB
:1008F0005803FF2009F4ACCF8F2DA2CF112381F034
:10090000011106C00E94E00A8F290E94AC03A0CF0B
:100910000130C1F70E94E00A8F290E94E70A98CFB0
:10092000011106C00E94F40A8F2D0E94B30390CFDC
:10093000013009F48DCF8F2D0E94B3030E94F40A79
:1009400087CF112329F0063008F082CF8F2DDDCF1D
:10095000053008F07DCFE8CF002331F3D93349F4D7
:10096000FFEF27EE33E0F15020403040E1F700C0C8
:1009700000008D2F0E9458036BCF8C2F8695869593
:10098000837069F0813009F063CF8D2F9C2F9370B5
:10099000111102C080E090E00E94501559CF8D2FB8
:1009A0009C2F9370111102C080E090E00E942B15E3
:1009B0004FCF612F8D2F0E9401034ACF8C2F837060
:1009C000A1F5111145CF4D2F429546954770440F23
:1009D000440F2D2F2F7030E0042E02C0220F331F42
:1009E0000A94E2F790E080E0D4FF09C08FE090E045
:1009F00002C0880F991F4A95E2F780959095C69599
:100A0000C695C370822B932BC23049F058F4C13085
:100A100019F00E9475061CCF0E946C0619CF0E9427
:100A20007E0616CF0E94690613CF8695112311F01A
:100A30008C2F8170882309F40BCF4D2F429546955A
:100A40004770440F440F2D2F2F7030E0042E02C04A
:100A5000220F331F0A94E2F790E080E0D4FF09C030
:100A60008FE090E002C0880F991F4A95E2F78095C9
:100A70009095C695C695C370822B932BC23049F0D2
:100A800058F4C13019F00E94E006E2CE0E94D70669
:100A9000DFCE0E94E906DCCE0E948D06D9CECF7053
:100AA000112329F08C2F0E94A5068D2F2ECF8D2F7C
:100AB0000E94B3038C2F0E94B506CACED23F41F1EB
:100AC00060F4D03FB9F0D13F81F0112309F446C062
:100AD0000111A4CE8C2F8F711FC0D33F01F1D43FE1
:100AE000A1F78091770282FD24C08C2F8F71112392
:100AF00011F312C0112341F0053008F0A9CE8C2F5C
:100B00008F710E94C706A4CE063008F0A1CEF7CFA1
:100B10008C2F8F711111CFCF0E94A50699CE112372
:100B200029F08C2F8F710E94990692CE0E94940614
:100B30008FCE112349F0CF718C2F0E94A50663E060
:100B40008C2F0E94430B84CE81E00E94610B023007
:100B500008F47ECE82E00E94610B7ACE002359F029
:100B6000D93309F006CF8FEF97EEE3E08150904044
:100B7000E040E1F7FCCE8C2F8F719DCF0F931F9338
:100B8000CF93DF93EC01688179818A810E94A80765
:100B90008C010E94F2060E946806B801CE010E94F4
:100BA000BA03DF91CF911F910F910895CF93DF93F7
:100BB000EC018B819C81892B29F088819981892383
:100BC0008F3F51F4DF91CF910895CE010E94BE0571
:100BD000CE010E940202F6CFCE010E9427028111AF
:100BE000F4CF0E94B60A882369F38A81882351F3DF
:100BF0008091770282FFE6CF82E00E94610BE2CF14
:100C000090E080E00E942B1590E080E00E9450155B
:100C10000E94DD0A0E94FE0A0E9420120E94041215
:100C200008950E94A50A0E94000608950E94CD0A18
:100C30000E941106089592959F70963091F058F495
:100C4000925F9F70923058F4803F19F030F4883EE4
:100C500030F481E008959A5FF4CF843FD1F380E0CF
:100C60000895883EB0F3813FD1F7F3CFFC01838133
:100C70009481892B29F08081918189238F3F11F400
:100C800080E00895808191810E949D070E941B064B
:100C90000895A5E0B0E0EFE4F6E00C940B1E259675
:100CA000E2E00C94271EA6E0B0E0E9E5F6E00C9443
:100CB0000B1E2696E2E00C94271E08950E945D0606
:100CC00008950E945E069093AB018093AA01089557
:100CD00008950E94610608952091AA013091AB0108
:100CE000822B932B0E94610608952091AA013091D6
:100CF000AB01822393230E94610608952091AA01EB
:100D00003091AB01822793270E94610608950E94CB
:100D10005D0608950E94870608950E948A069093B2
:100D2000A9018093A801089590E080E00E948D06BB
:100D3000089521E030E0A90102C0440F551F8A95B3
:100D4000E2F7CA010E948D06089521E030E002C05A
:100D5000220F331F8A95E2F78091A8019091A90193
:100D6000822B932B0E948D06089521E030E002C073
:100D7000220F331F8A95E2F7209530958091A801C4
:100D80009091A901822393230E948D06089521E06A
:100D900030E002C0220F331F8A95E2F78091A8014C
:100DA0009091A901822793270E948D060895209192
:100DB000A8013091A901822B932B0E948D060895E2
:100DC0002091A8013091A901822393230E948D06CE
:100DD00008952091A8013091A901822793270E94AC
:100DE0008D0608950895262F277091E001C0990F70
:100DF0002A95EAF723E0769567952A95E1F7660F3D
:100E0000771F660F771FFA01E60FF71F50E040E0EB
:100E1000682F70E08191DF0111979B01042E02C0C1
:100E2000369527950A94E2F72170219528272923E2
:100E300028272C934F5F5F4F4430510559F7089591
:100E4000A82FA77023E0969587952A95E1F7880F3C
:100E5000991F880F991FFB01E80FF91F50E040E030
:100E600080E0219130E00A2E02C0369527950A9441
:100E7000E2F721703327042E01C0220F0A94EAF70B
:100E8000822B4F5F5F4F4430510559F70895262F4D
:100E9000953070F4863060F4682F70E086E0989F9B
:100EA000600D711D112448E951E0822F0E94F30664
:100EB0000895292F953068F4863058F490E068E959
:100EC00071E036E0239F800D911D11240E942007C0
:100ED000089580E00895B0E0A0E0E1E7F7E00C9429
:100EE000041E7C010091A8011091A9018091AA0122
:100EF0009091AB01082B192BCFE0D0E0CC24C39408
:100F0000D12CBC2EC6010C2E02C0880F991F0A944A
:100F1000E2F780239123892B49F4219790F7B12C94
:100F20008B2DCDB7DEB7E9E00C94201EB7018C2FD6
:100F30000E94400E019789F3F3CFCF93DF93EC012A
:100F40000E946B07BE010E94400EDF91CF91089571
:100F50001F93CF93DF93EB0190919701992339F081
:100F6000CB010E949D07DF91CF911F9108958823A7
:100F700069F0CB010E946B07182F682FCE010E94E9
:100F80004707BE01812F0E94400EEDCFCB010E948A
:100F90005907182FF6CF1F93CF93DF93C091AC0161
:100FA00016E08091AD018C1304C0DF91CF911F91A9
:100FB0000895D0E01C9FF0011D9FF00D1124E25513
:100FC000FE4F4081518162817381848195810E94AD
:100FD00053062196C770E5CF4091DE015091DF01A5
:100FE0006091E0017091E1018091E2019091E30153
:100FF0000E94530608952091AC019091AD0156E0F6
:10100000291302C080E0089530E0529FF001539F01
:10101000F00D1124E255FE4F7181761306C07081E8
:10102000781303C07281741304C02F5F3F4F277081
:10103000E7CF81E008951F93CF93DF938091E30181
:10104000807F09F04BC08091E001882309F446C0FD
:101050008091AC01C091AD014091DE015091DF0162
:101060006091E1017091E201D42FD52316E0C817F9
:10107000A9F190E061157105A9F1DF3F99F1189F81
:10108000F001199FF00D1124DF01A255BE4F1196FA
:101090002C911197251326C02C91241323C012964E
:1010A0002C91129721111EC013962D913C91261B55
:1010B000370B283C3105B0F48091E3018F708061DB
:1010C0008093E301ED54FE4F80818F7080618083B7
:1010D0008EED91E00E94D6050E94CB07DF91CF9163
:1010E0001F91089501968770C2CFA1E1B0E0EBE7B0
:1010F000F8E00C94011E8C0185E0F801DE011D96DC
:1011000001900D928A95E1F7F801F2808EEDA82EFC
:1011100081E0B82E4091E1015091E2014115510565
:1011200009F45AC19091DE012091DF01892F8223B9
:101130008F3F09F451C1C080D18083809480E090BA
:10114000E001B401641B750BEE2009F4F6C0809138
:10115000E301382F307F683C710508F0AFC03111D2
:101160007AC0EF2C2D1116C09C1114C0F11012C0C2
:101170008F7080618093E3010E94EC07C5010E949B
:10118000D6058091E301F80185838E2D6196ECE010
:101190000C941D1E81149104C9F18C2D8D218F3F5B
:1011A000A9F181E08F2580FF05C04F2D6D2D8C2D7D
:1011B0000E94FB078114910459F18C2D8D218F3FE2
:1011C00039F181E08F25F82FF170BF2E80FF39C0F3
:1011D0004F2D6D2D8C2D0E94FB07A82E811131C043
:1011E000CD86DE868D859E850E949D07292F2295BE
:1011F0002F70243078F49F702230A8F09923B9F032
:10120000F8019581907F99F4EA2CBFCF80E0CBCF95
:1012100080E0D9CF2A5F2F70223068F0C8010E9489
:10122000D605AB2CF1CF992311F0882369F3805EAA
:10123000883050F3F3CF803F38F3815F833070F70D
:10124000E3CFFF2009F4A1CF8091E3018160809377
:10125000E301E12C9ACF2D1105C09C1103C0FF20A2
:1012600009F486C0C8010E943606882319F1FF20C0
:1012700009F18091E301803270F02091DE0130911C
:10128000DF0138872F8319869B868A868C87CE015B
:1012900007960E94D60586E0F801AEEDB1E0019018
:1012A0000D928A95E1F70E941B080E94EC07EE243C
:1012B000E3946BCFC8010E94D605F9CF311114C059
:1012C000782D998A888AA6016F2D89890E944906FE
:1012D0008EED91E00E94D60586E0F50111928A9587
:1012E000E9F70E94EC07B5CF2D110EC09C110CC080
:1012F000F1100AC08583C8010E94D60586E0F50179
:1013000011928A95E9F741CFC8010E9436068823D9
:1013100089F2FF2079F28091E301803208F4BBCF9B
:101320002091DE013091DF013A8329831B829D8267
:101330008C828E83CE010196ACCF683C710508F09B
:101340003DC0EF2CFF2009F4B5CF2D1129C09C1111
:1013500027C08091E30180FD1AC0982F907FB9F0DB
:101360008583903F31F0982F907F905F8F70892B0D
:101370008583C8010E94D60586E0F801AEEDB1E094
:1013800001900D928A95E1F70E94EC07FECE86E06F
:10139000F801AEEDB1E001900D928A95E1F7F5CE3E
:1013A000C8010E943606811176CF8091E3018160E9
:1013B0008093E301C8010E94D605E7CE782D998A73
:1013C000888AA6016F2D89890E94490686E0F50169
:1013D00011928A95E9F7D8CFFF2009F46BCFC801A5
:1013E0000E943606E82E882309F464CF86E0F801CF
:1013F000AEEDB1E001900D928A95E1F78EED91E0AE
:101400000E94FB020E941B08BFCFACE0B0E0EBE003
:10141000FAE00C940A1E4F83588769877A878B8776
:101420009C87CE0107960E9475088823B1F08A85B3
:101430009B85892B39F04F815885842F85238F3FD9
:1014400009F06CC016E08091AC019091AD01891358
:1014500043C02C96E3E00C94261E86E0FE013796EE
:10146000DE01119601900D928A95E1F78A859B85A0
:10147000892B41F38F81988589238F3F19F3209120
:10148000AD0130E0C9010196877099274091AC0108
:101490004817190671F40E9416061092AD011092B9
:1014A000AC0186E0EEEDF1E0DF011D928A95E9F7EF
:1014B000C9CF96E0929FD001939FB00D1124A25501
:1014C000BE4FFE01319601900D929A95E1F78093FF
:1014D000AD010E94CB07B6CF819FC0011124825578
:1014E0009E4F0E947508882309F4B3CFE091AC01A8
:1014F0001E9FF0011124E255FE4F4081518162810F
:101500007381848195810E9453068091AC0190E0A3
:101510000196877099278093AC0195CF69857A856C
:101520008B859C850E9453068DCF682F809100018A
:10153000909101010E9409160895682F8091000181
:10154000909101010E9417160895809100019091D9
:1015500001010E94251608958091040285958595C4
:1015600085950895809104028770089590910402F2
:10157000977081E009F480E0089580912702089532
:1015800090912702892B809327020895809590914E
:101590002702982390932702089510922702089516
:1015A00090912602892B8093260208958095909130
:1015B00026029823909326020895109226020895F9
:1015C00080910502089508950E94E30A089590917C
:1015D000770292FF08C090910502981721F080933E
:1015E00005020E94E40A089580910502882329F0EB
:1015F0001092050280E00E94E40A0895CF93DF93E1
:10160000E0910001F0910101809127028083E09137
:101610000001F0910101808190912602892B808345
:1016200090910502992381F0E0910001F091010170
:101630008081892B808380910001909101010E941B
:10164000751581110E94F40AC0910001D091010129
:1016500040E250E064EE71E0CE010E94461E892B0C
:1016600059F080E2FE01A4EEB1E001900D928A955E
:10167000E1F7CE010E940315DF91CF9108950895FF
:101680000E943F0B08959091770292FF11C098E05D
:10169000899F90011124622B609304020E94A50689
:1016A000809104028595859585950E94400B08954B
:1016B0000E94A50608951092040280E00E94400B4B
:1016C0000895909104028095892380930402282F25
:1016D000277091F4282F082E000C330B9217130655
:1016E00059F09091770292FF07C085958595859571
:1016F0000E94B5060E945B0B08959091770292FBC1
:10170000222720F9281769F080FB92F9909377023D
:1017100080917602909177020E94C50B82E00E9430
:10172000610B08958091770282FB882780F991E010
:1017300089270E947D0B089581E00E947D0B08950A
:1017400080E00E947D0B08956FEF7FEF90E080E0D6
:101750000E94881E089590E080E00E94641E21E0AF
:10176000873E9E4F09F020E0822F089582E090E0AE
:101770000E945C1E089583E090E00E945C1E089524
:1017800084E090E00E94641E0895BC0184E090E033
:101790000E94881E0895AB01BC018FE090E00E947A
:1017A0007C1E0895AB01BC0183E190E00E947C1E89
:1017B000089560E070E0CB010E94D20B089560E0D4
:1017C00070E0CB010E94CB0B0E94D90B089567EE0D
:1017D0007EEF90E080E00E94881E60E082E090E072
:1017E0000E946A1E60E083E090E00E946A1E1092F0
:1017F000AB011092AA0160E074E184E090E00E94E5
:10180000881E60E086E090E00E946A1E6FEF87E02D
:1018100090E00E946A1E40E050E0BA0188E090E04B
:101820000E947C1E60E08DE090E00E946A1E40E015
:1018300050E0BA0188E190E00E947C1E60E087E100
:1018400090E00E946A1E40E050E0BA018CE190E016
:101850000E947C1E70E060E080E290E00E94881EA2
:1018600040E050E0BA0188E190E00E947C1E0E94B6
:10187000DF0B08950E94E70B0895682F8EE090E03B
:101880000E946A1E0895A5E0B0E0E9E4FCE00C9433
:10189000091E0E94E6168C0180912802909129026F
:1018A00080179107A1F08FEF89838A831B820E94A2
:1018B000E6168160782F9D838C8349815A816B81E4
:1018C0008D810E94C602109329020093280225965A
:1018D000E4E00C94251E0E94F2166093330270938C
:1018E0003402809335029093360260932F027093F6
:1018F0003002809331029093320208950895089542
:101900000E947F0C089508950E94830C089581E041
:1019100008958AE29FE00E94EC140E947E0C0E94CF
:10192000800C08950E94870C08950E94920C0895DF
:10193000089508950E94980C0E94990C08950E94A1
:10194000490F0E949A0208950E94DD160E9410100D
:101950000E949F0C0E94840C0895A5E0B0E0E3EB88
:10196000FCE00C94031E0E94870C81110AC00E94A7
:10197000430C0E9442120E94AD022596EAE00C94AC
:101980001F1E0E9426108AE2A82E82E0B82E750142
:1019900010E0F70101917F01812F0E946F0F1F5FFF
:1019A000153009F440C00817A1F38091370281FD7A
:1019B0000E94750F0E94950CC82E10E0812F0E9486
:1019C0006F0F082FF50181915F01081731F1D02EBB
:1019D000D826F12CEE24E3948D2D8E21B1F0CC206D
:1019E000A1F0F9821A8391E0802F8E2109F490E012
:1019F0009B830E94E6168160782F9D838C834981AA
:101A00005A816B818D810E94C602F394EE0CF6E040
:101A1000FF12E2CFF501319700831F5F153071F699
:101A20000E946B0CA6CF0813C0CFA1CF1F93CF93FA
:101A3000DF930E94450EEC01C11580E5D807F0F553
:101A4000C11580E4D80708F09CC0C03ED10520F540
:101A5000CD3CD10508F082C0C83AD10578F4C53A2A
:101A6000D10508F073C0C130D10519F1209709F1F3
:101A7000C430D105F0F4D0E0C0E01BC0C33CD105B8
:101A8000D0F7C85AD0E0CC0FDD1FC45BDE4F099001
:101A9000D881C02DD4640DC0C11580E2D80708F0EC
:101AA000D1C0C11581E0D80708F05AC0C83ED105A1
:101AB00010F7CE01DF91CF911F910895C03682E5D6
:101AC000D80718F5C03482E5D80708F06BC0C032DB
:101AD00082E5D80708F05FC0C11582E5D80708F491
:101AE00097C02C2F2695269580E2289F90011124DF
:101AF0008C2F8370C1E0D0E002C0CC0FDD1F8A952F
:101B0000E2F7C22BD32BDD68D4CFC03A82E5D807E9
:101B100060F4C03882E5D80708F459C0CF71D0E02E
:101B2000DC2FCC27C46FD06AC4CFC03C82E5D80775
:101B300008F462C0C03E82E5D80708F09CCFDC2FD5
:101B4000CC27CC27DF71C06FD06AB3CFC55AD0E0A5
:101B5000CE57DE4FC881D0E0D064ABCFD065A9CFDF
:101B60008D2F0E94E70E182FCE0199270E94450E57
:101B7000C12FD0E0DC2FCC27CC27DF71C82BD92B8D
:101B800098CFCE0199270E94450ECC27DF70C82B35
:101B9000D92BD06A8ECFCF71D0E0DC2FCC27C16F8C
:101BA000D06A87CF2C2F26952695277080E2289F14
:101BB000900111248C2F8370C1E0D0E002C0CC0FC3
:101BC000DD1F8A95E2F7C22BD32BDC6872CF2C2F56
:101BD00026952695277080E2289F900111248C2F4E
:101BE0008370C1E0D0E002C0CC0FDD1F8A95E2F720
:101BF000C22BD32BDA685DCF8C2F8F710E94E70E3A
:101C0000C82FD0E0DC2FCC27CC27DF71D06251CF9A
:101C10008C2F8F710E94E70E55E0D695C7955A9587
:101C2000E1F7CF70D0E0DC2FCC27282F30E084FF05
:101C300005C044E0220F331F4A95E1F7C22BD32B96
:101C4000D06937CF8D2F8F710E94E70E182FCE01EC
:101C500099270E94450EC12FD0E0DC2FCC27CC273E
:101C6000DF71C82BD92BD2CF462F753030F46630B8
:101C700020F4672F0E94BC01089590E080E0089551
:101C80000E94340E0E94160D089582389105B9F114
:101C9000B0F48133910509F47DC048F4893291058F
:101CA00009F46DC08A32910509F47BC0089585332B
:101CB000910509F45FC08933910509F10895833EC8
:101CC0009105D9F138F4803E910529F1823E9105C4
:101CD00079F10895863E9105D9F1873E910509F481
:101CE0003EC0843E910541F52091770221FF24C03A
:101CF0008091760284FD19C087EE90E008952091CE
:101D00007602237009F05AC02091770223FF14C095
:101D100089E290E008952091760220FD38C030914C
:101D2000770230FF09C024FF43C090E080E00895AF
:101D30002091760222FDF7CF08952091760222FDB0
:101D40003AC03091770230FD39C024FFF5CFEDCF96
:101D50002091760223FFF0CF24FDE7CFCDCF209155
:101D6000760223FD2EC03091770231FFEECF84EE54
:101D700090E008952091760225FFDECFC9CF209113
:101D8000760225FD21C02091770223FFD5CF89E37C
:101D900090E0D2CF2091760226FFCECF8AE290E06B
:101DA00008952091760226FFC7CF81E390E0089541
:101DB00083EE90E0089582EE90E0089580EE90E04A
:101DC000089586EE90E0089585E390E0089590915F
:101DD000760292FF06C0282F28712830F9F4877FF9
:101DE000846093FF06C0282F28712831F1F4877E84
:101DF00084612091770220FF06C0382F3871383077
:101E0000D9F4877F816021FF06C0282F28712831EF
:101E1000D1F4877E816194FD877E0895282F2471F7
:101E20002430F9F68B7F8860DCCF282F2471243191
:101E300001F78B7E8861DDCF382F3171313019F792
:101E40008E7F8860E0CF282F2171213121F78E7E8F
:101E50008861E1CF80E008950E94A40B08950E945C
:101E600026102FEF86E791E0215080409040E1F767
:101E700000C000000E94261080E00E946F0F80FFCB
:101E800004C00E942C0F0E94311708950E942F0F4A
:101E900008950E94AB0B811102C00E943A0C0E946F
:101EA000B60B809337020E94C00B90937702809309
:101EB00076020E94460F0E94BB0B90E00E946906CA
:101EC0008091A8019091A9010E948A060895089521
:101ED0000E94670F089508950E946B0F0895E82FE0
:101EE000F0E0E358FD4F80810895089580EA8A95D7
:101EF000F1F7089500C008950E94760F0895F894B0
:101F0000E82FE295EF70F0E031A1282F2F7081E0EB
:101F100090E001C0880F2A95EAF7982F90959323B7
:101F200091A392A1892B82A378940895CF93DF93F4
:101F3000CBE8D1E089918F3F11F00E947F0F81E0C3
:101F4000C039D807B9F7C5E8D1E089918F3F11F0C2
:101F50000E947F0F81E0CB38D807B9F7DF91CF918E
:101F60000895B0E0A0E0E7EBFFE00C94051EEC0163
:101F7000D62E062F10E0C80185579E4F7C01FC012C
:101F800080818F3F09F445C0F894E82FE295EF7007
:101F9000F0E091A18F7021E030E001C0220F8A951E
:101FA000EAF7892F822B81A382A12095282322A3DF
:101FB00078940E947A0FE5E8F1E04BE851E031E0D7
:101FC000C12C21912F3F51F1A22FA295AF70B0E00B
:101FD00090968C9190E02F7002C0959587952A95E8
:101FE000E2F780FD1BC0832FC82A330F4E175F070F
:101FF00041F7F70180818F3F11F00E947F0F61E070
:10200000C11001C060E08D2D0E947C0FC00FD11F58
:10201000C882CDB7DEB7E8E00C94211E80E0E4CFA3
:102020000E94960F85E0EDE7F2E0DF01982F1D9208
:102030009A95E9F7E8E7F2E0DF011D928A95E9F762
:1020400085E00E9461100E94680F0895A5E0B0E04D
:10205000ECE2F0E10C94081E8E010F5F1F4F85E04B
:10206000F80111928A95E9F7F12C6F2DC8010E94B1
:10207000B10FF394F5E0FF12F8CF45E050E0B8015E
:1020800088E792E00E94461E21E0009709F420E0D4
:10209000892B41F085E0F801A8E7B2E001900D92AC
:1020A0008A95E1F745E06DE772E088E792E00E94EB
:1020B0006210182F0E946C0F812F2596E5E00C947A
:1020C000241E0895CF92DF92EF92FF920F931F93F9
:1020D000CF936C017B01042F222349F081E0809390
:1020E0003A020E94E6169093390280933802C0911A
:1020F0003A02C1110AC0C0E08C2FCF911F910F91FD
:10210000FF90EF90DF90CF900895809138029091EA
:1021100039020E94FE16059770F310E0A801B6017F
:10212000C7010E94461E892B41F0A801B601C701D4
:102130000E94531E10923A02DFCFC0E0FBCF0E94F4
:10214000B7180E94A40C0E94C41808950E94C918D0
:102150000E94AD0C0E94E31808950E947F160E9411
:102160009D180E94890C0E949F100E94A6100E9438
:102170009A0CFBCF8091410280FF0DC06091070156
:1021800070E0660F771F6038710570F56115710595
:1021900069F1862F089581FF07C06091070184E0EF
:1021A000689FB0011124EFCF6091070182FD0AC042
:1021B000809140028823A9F02091060160910701D7
:1021C000821710F088E0ECCF869FC001112433E025
:1021D000880F991F3A95E1F7622F70E00E94E11D88
:1021E000D2CF68E070E0D5CF8FE7089581E0089501
:1021F0008091410280FF0CC06091030170E07595F1
:102200006795759567956115710549F1862F089554
:1022100081FF06C06091030170E075956795F3CF6B
:102220006091030182FD0BC090913F029923A1F0C0
:102230006091020180910301961738F0682F70E0D9
:102240006038710500F38FE70895899FC00111245C
:1022500070E00E94E11DF4CF61E070E0D7CF81E033
:1022600008958D3C31F40E94BA1081958093450207
:1022700008958E3C19F40E94BA10F8CF8F3C31F4C7
:102280000E94BA108195809344020895803D19F40C
:102290000E94BA10F8CF893D29F40E94F81080936B
:1022A000460208958A3D21F40E94F8108195F7CFE7
:1022B0008B3D31F40E94F810819580934702089578
:1022C0008C3D19F40E94F810F8CF9FE2980F9830D7
:1022D00070F4815D990B21E030E001C0220F8A95F6
:1022E000EAF780914302822B8093430208958D3D4B
:1022F00031F48091410281608093410208958E3DC6
:1023000021F4809141028260F7CF8F3DB9F780912F
:1023100041028460F1CF409144028D3C59F4809198
:10232000450287FF0DC01092450241110BC010926B
:10233000400208C08E3C81F48091450218169CF33F
:10234000442381F08091460290914702892B09F045
:102350005AC010923F0208958F3C49F447FFF0CFD6
:1023600010924402809145028111ECCFE0CF803D74
:1023700019F41416ACF3E4CF90914602893D29F488
:102380001916F4F610924602DBCF8A3D19F497FF36
:10239000D7CFF8CF909147028B3D29F497FFD0CF4C
:1023A00010924702CDCF8C3D19F41916CCF3C8CF4B
:1023B0009FE2980F983090F4815D990B21E030E016
:1023C000B90102C0660F771F8A95E2F7CB018095AD
:1023D00090914302892380934302B2CF8D3D31F423
:1023E000809141028E7F80934102AACF8E3D21F4DD
:1023F000809141028D7FF7CF8F3D09F0A1CF809171
:1024000041028B7FF0CF08950E94E6169C019091C7
:10241000440280914502982B21F030933E02209394
:102420003D029091460280914702982B21F0309313
:102430003C0220933B0282E492E00E941D15089525
:1024400086E0E2E4F2E0DF011D928A95E9F710925E
:10245000400210923F02109241020895FC018281D5
:1024600081110EC0838181110BC08481811108C04C
:1024700091E08581811101C090E0892F81700895DC
:1024800081E0FCCFA6E0B0E0E8E4F2E10C940A1EA3
:1024900086E0E2E4F2E0DE01119601900D928A9569
:1024A000E1F71092440210924502109246021092F7
:1024B00047028B819C81892B89F080913D0290910C
:1024C0003E020E94FE16AC01909140029923C9F190
:1024D000809108018417150608F440C08D819E8103
:1024E000892B91F080913B0290913C020E94FE1654
:1024F000AC0190913F02992309F471C080910401CD
:102500008417150608F479C0BE016F5F7F4F82E41F
:1025100092E00E943716811105C082E492E00E9489
:102520002E1281110E94041286E0FE013196A2E46F
:10253000B2E001900D928A95E1F72696E3E00C94C3
:10254000261E209109018AE0289F9001112424175A
:10255000350720F69F5F9093400202C09F3FD1F75E
:102560001B81112359F00E94BA109FEF11160CF431
:1025700091E0899F802D1124809344021C811123B6
:1025800059F00E94BA109FEF11160CF491E0899F48
:10259000802D11248093450230914402332309F4A5
:1025A0009DCF20914502222309F498CF45EB3403B7
:1025B000C0011124992359F09093440245EB240360
:1025C00090011124332339F03093450287CF81E005
:1025D00080934402F3CF81E0809345027FCF209126
:1025E00005018AE0289F900111242417350708F07F
:1025F0008BCF9F5F90933F0202C09F3FD1F71D8119
:10260000112359F00E94F8109FEF11160CF491E07D
:10261000899F802D1124809346021E81112359F039
:102620000E94F8109FEF11160CF491E0899F802D05
:1026300011248093470230914602332309F464CF7A
:1026400020914702222309F45FCF45EB3403C001F8
:102650001124992359F09093460245EB24039001ED
:102660001124332339F0309347024ECF81E0809319
:102670004602F3CF81E08093470246CFCF93DF93AA
:10268000EC01FB018281882309F4D2C09E013057FE
:102690002332310508F0B2C00E94C00B909377023C
:1026A00080937602FE01E150F047E232F10520F41A
:1026B000E455F14E0C94F51D809176028160809373
:1026C000760293C0809177028860809377028DC0F4
:1026D000809176028260F3CF809176028460EFCFA2
:1026E000809176028860EBCF809177028160EDCF98
:1026F000809177028260E9CF809176028061DFCF9E
:10270000809176028062DBCF809176028064D7CFA1
:102710000E941606809176028068D1CF8091760261
:102720008C60CDCF809177028360CFCF809176028D
:102730008E7FC5CF80917702877FC7CF8091760249
:102740008D7FBDCF809176028B7FB9CF809176024D
:10275000877FB5CF809177028E7FB7CF8091770248
:102760008D7FB3CF809176028F7EA9CF8091760244
:102770008F7DA5CF809176028F7BA1CF0E94160618
:10278000809176028F779BCF80917602837F97CF5F
:10279000809177028C7F99CF8091760282FB992776
:1027A00090F921E0922790FB82F990FB83F987CF83
:1027B00080917702982F909591708E7F892B90FB56
:1027C00081F983CF90917602892F8F7B96FF806469
:1027D00076CF0E94160690917602892F97FB87F993
:1027E00080586DCF81E00E943D0C809176029091DF
:1027F00077020E94C50B0E94160680E0DF91CF9100
:10280000089580E0F0CF90917602892F8F7E94FF1B
:10281000806155CF90917602892F8E7F90FF8160E5
:102820004ECF90917702892F877F93FF88604DCF9D
:1028300081E0E4CFCF93DF93EB0186319C4711F524
:102840000E94BD0A9A81992399F08A7A91E009F44D
:1028500090E090934802811109C089E20E94950A94
:102860000E94FE0A80E0DF91CF91089585E3F6CFC4
:1028700080914802811104C089E20E949D0AF0CF34
:1028800085E3FBCF81E0EFCF0F931F93CF93DF93CF
:10289000C42FD22FFC0182818823C9F040934B02C0
:1028A0000E94E61690934A028093490280E28C0FC0
:1028B000883040F4C77081E001C0880FCA95EAF7FC
:1028C0000E94AC03DF91CF911F910F910895109159
:1028D0004B02141332C08091490290914A020E9427
:1028E000FE16883C910548F5C0E2CD0F1D17B9F0E2
:1028F00080E2810F883040F4177081E001C0880FBA
:102900001A95EAF70E94B303C83048F481E09D2F7E
:10291000977001C0880F9A95EAF70E94AC03802F48
:102920000E94A303C83070F6D77081E001C0880F01
:10293000DA95EAF70E94B303C5CF80E28C0F8830A6
:1029400008F6C77081E001C0880FCA95EAF7F2CF98
:102950000F93DB0188519C4787309105A0F5FC015E
:10296000E253F14E0C94F51D06E221EE41EE6AE1D0
:102970007CE7CD010E94441480E00F91089507E2A6
:1029800025EE45EE6BE17CE7F4CF06E221EE40EE6A
:1029900068E17CE7EECF07E225EE44EE69E17CE7F3
:1029A000E8CF06E221EE42EE6CE17CE7E2CF07E2FF
:1029B00025EE46EE6DE17CE7DCCF08E221E045EE56
:1029C0006EE17CE7D6CF12968C91882319F0109295
:1029D0004B02D3CF81E0D1CF9093910180939001AE
:1029E000089590935102809350020895E09150020F
:1029F000F0915102309729F00190F081E02D099576
:102A0000089580E00895E0915002F09151023097CE
:102A100099F020911201222359F02091760227FF8C
:102A200007C0DC012C9111962C93119726E02C9372
:102A30000280F381E02D09950895E0915002F09114
:102A40005102309739F022E0DC012C930480F581AB
:102A5000E02D09950895A3E0B0E0E1E3F5E10C94E1
:102A60000B1E20914E0230914F0228173907A1F01A
:102A700090934F0280934E02E0915002F0915102E8
:102A8000309751F023E029839B838A830680F78166
:102A9000E02DCE01019609952396E2E00C94271EC5
:102AA000A3E0B0E0E6E5F5E10C940B1E20914C02AA
:102AB00030914D0228173907A1F090934D02809371
:102AC0004C02E0915002F0915102309751F024E015
:102AD00029839B838A830680F781E02DCE010196AE
:102AE00009952396E2E00C94271EFC013296809112
:102AF0001201882321F0809176029EE187FF96E003
:102B000080E0915008F4089521912223D1F38F5F42
:102B1000F8CF662301F1209112012223F1F02091D8
:102B2000760227FF1AC0462F4695469546954E31A8
:102B300090F4677021E030E002C0220F331F6A95E5
:102B4000E2F7840F911DFC01828190E02823392354
:102B500081E0232B69F480E00895FC013296089609
:102B60002191261721F0E817F907D1F7F4CF81E07A
:102B700008959C01FC0132969FEF80E04191461739
:102B800051F09F3F19F4411101C0982F8F5F86309B
:102B9000A9F79F3F09F40895290F311D97FD3A9534
:102BA000F90162830895FC0132960896219126135B
:102BB00003C0DF0111971C92E817F907B9F70895D0
:102BC000E62FE695E695E695EE3168F4E80FF92FE5
:102BD000F11D677021E030E001C0220F6A95EAF72D
:102BE0008281822B82830895E62FE695E695E6950D
:102BF000EE3170F4E80FF92FF11D677021E030E03D
:102C000001C0220F6A95EAF720958281282322834A
:102C1000089520911201222339F02091760227FF96
:102C200003C00E94E01508950E94B91508952091EF
:102C30001201222339F02091760227FF03C00E945F
:102C4000F41508950E94D3150895FC0132968091E1
:102C50001201882351F08091760287FF06C08EE131
:102C6000DF011D928A95E9F7089586E0F9CF46E0E5
:102C700050E00E94461E21E0892B09F420E0822FBB
:102C8000089508950E9441160895811106C081E0BB
:102C9000809352020E944216089582E0F9CF83E0A9
:102CA000809352020E94421608950E94451608958C
:102CB00081E0809352020E94421608950E945816A5
:102CC0000895089508950E9462160895089508953C
:102CD0000E9461160895CF930E9466160E942610E6
:102CE0000E946716C0E08C2F0E946F0F811105C0F3
:102CF000CF5FC530C1F7CF91089581E0FCCF85B794
:102D0000806885BF85B7806885BF08951F921FB60C
:102D10001F9211248F939F93AF93BF93809153027F
:102D2000811113C08091820290918302A09184024C
:102D3000B09185024196A11DB11D809382029093AE
:102D40008302A0938402B0938502BF91AF919F91BB
:102D50008F911F901FBE1F90189580918A0284301A
:102D600031F10E947D021092530288E190E020E44C
:102D70000FB6F894A895809360000FBE2093600072
:102D800083B7817F846083BF83B7816083BF78947A
:102D9000889583B78E7F83BF0FB6F894A8958091EE
:102DA0006000886180936000109260000FBE0895FB
:102DB0000E9416060E948202089582E084BD93E07C
:102DC00095BD9AEF97BD80936E0008952FB7F89444
:102DD0008091820290918302A0918402B091850239
:102DE0002FBF08952FB7F8946091820270918302EB
:102DF00080918402909185022FBF08959C014FB766
:102E0000F8948091820290918302A0918402B09103
:102E100085024FBF821B930B089578941F921FB6B3
:102E20001F9211248F939F93AF93BF93809182023F
:102E300090918302A0918402B09185020196A11D18
:102E4000B11D8093820290938302A0938402B09379
:102E50008502BF91AF919F918F911F901FBE1F90D0
:102E6000189587E797E7909301088093000888E119
:102E70009AE00FB6F894A895809360000FBE9093E7
:102E80006000FFCF88E19AE00FB6F894A895809390
:102E900060000FBE90936000FFCF80917402089590
:102EA0009B01BA0190918A029430E9F48F7080936B
:102EB000E9009FEF8091E800915085FD06C085ED07
:102EC0008A95F1F700009111F5CF8091E80085FF18
:102ED0000AC050E040E0C9010E945A198091E80000
:102EE0008E778093E800089543E050E0BC0182E0D3
:102EF0000E945017089546E050E0BC0182E00E9415
:102F000050170895CF93DF93EC0180911201811146
:102F100011C048E050E0BE0181E00E94501780E2FD
:102F2000FE01A4E5B2E001900D928A95E1F7DF91F0
:102F3000CF9108958091760287FF05C040E282E03C
:102F400050E0BE01EACF48E081E0FACF80918902EB
:102F5000811109C00E94EA1A0E94471B8091E20079
:102F600084608093E20008951092890208950E947F
:102F7000581608956091860281E0611101C080E0D9
:102F80000E944F16089590918A0281E0943009F0D2
:102F900080E0609186020E945516089542E061EC3F
:102FA00081E00E94661A42E261EC82E00E94661AA9
:102FB00090918A0281E0943009F080E0609186026D
:102FC0000E944516089580918C02833009F461C0F7
:102FD00030F48130D1F1823009F49EC008958A30F6
:102FE00009F48AC08B3009F46FC0893009F050C0F1
:102FF00080918B02813209F04BC080918F029091B9
:103000009002029708F044C08091E800877F809387
:10301000E8008091E80082FF37C09091F300809132
:10302000F200029731F48091F100813011F0863086
:1030300021F48091F100809374028091E8008B77F5
:103040008093E8000E949A1A23C080918B02813AF3
:10305000F9F48091E800877F8093E80080918F02E7
:1030600090919002892B61F460E284E592E070E037
:103070000E94A9198091E8008B778093E800089559
:1030800060E090E080E0F3CF80918A028111C1CFAF
:10309000089580918B02813AD9F780918F029091A7
:1030A0009002892BA9F78091E800877F8093E80040
:1030B0008091E80080FFFCCF809112018093F100A5
:1030C0008091E8008E77BCCF80918B02813201F72E
:1030D00080918F0290919002892BD1F68091E80027
:1030E000877F8093E8000E949A1A80918D028093D6
:1030F00012010E941606089580918B02813241F6DA
:103100008091E800877F8093E8000E949A1A80915E
:103110008E0280937502089580918B02813A09F0A6
:10312000B7CF8091E800877F8093E8008091E80026
:1031300080FFFCCF80917502C1CF84B7877F84BFA9
:103140000FB6F894A8958091600088618093600024
:10315000109260000FBE80E890E00FB6F894809364
:103160006100909361000FBE0E945E1608950E9458
:10317000EA1A0E94471BE2EEF0E0808184608083BF
:1031800078940E94C61D08958AE091E00E94F1148F
:10319000089580918A02853031F480918A028530C9
:1031A00019F00E94D81608950E94AD1680918802E9
:1031B000882399F30E946B16882379F30E9444199F
:1031C0000E941606EACF08959A014091910250910B
:1031D00092020E94EC180895492F5527433051055B
:1031E00019F168F44130510509F444C042305105E9
:1031F00009F445C090E080E050E040E025C0413255
:10320000510549F142325105A9F780E490E041ECC3
:1032100052E061157105C1F086EB90E04BE052E0A1
:103220006130710589F0E6CF99278130910581F0F1
:10323000009729F00297F1F6ECE9F1E002C0EAEB21
:10324000F1E0849190E0AF01F9015183408308954A
:10325000EAEAF1E0F6CF89E090E040ED51E0611557
:10326000710591F389E090E049EE51E0613071051C
:1032700059F3C0CF82E190E049EF51E0E5CF8BE315
:1032800090E04EEB51E0E0CF80E189BD82E189BD65
:1032900009B400FEFDCF8091D8008F7D8093D800C7
:1032A0008091E00082608093E0008091E00081FDE9
:1032B000FCCF0895AF92BF92CF92DF92FF920F930F
:1032C0001F93CF93DF936C01EB018A010E94B91A1F
:1032D000F82E811123C00115110539F0F801808104
:1032E0009181C81BD90BC80ED91EB12CA12C2097D7
:1032F000A9F08091E80085FD22C08091E8008E77DA
:103300008093E80001151105A1F0F80180819181F9
:10331000A80EB91EB182A08285E0F82E8F2DDF9114
:10332000CF911F910F91FF90DF90CF90BF90AF9002
:1033300008950E94B91A8823D1F2F82EEFCFF60132
:1033400081916F018093F1002197FFEFAF1ABF0ABF
:10335000CECFFC018091910290919202861797073F
:10336000A0F06115710529F49091E8009E77909383
:10337000E80090E06115710551F4911108C0809149
:10338000E80082FF34C080E00895BC01F2CF809154
:103390008A028823C1F18530C1F18091E80083FD64
:1033A00030C08091E80082FDEACF8091E80080FF84
:1033B000E1CF8091F3002091F200382F6115710563
:1033C00019F02830310558F091E02830310509F026
:1033D00090E02091E8002E772093E800CBCF8191F8
:1033E0008093F100615071092F5F3F4FE7CF8091CB
:1033F0008A02882341F0853041F08091E80083FF04
:10340000BECF81E0089582E0089583E00895FC0135
:10341000809191029091920286179707A0F0611512
:10342000710529F48091E8008E778093E80090E0A0
:103430006115710551F4911108C08091E80082FF77
:1034400035C080E00895BC01F2CF80918A028823C4
:10345000C9F18530C9F18091E80083FD31C08091C8
:10346000E80082FDEACF8091E80080FFE1CF809103
:10347000F3002091F200382F6115710519F0283002
:10348000310558F091E02830310509F090E0809145
:10349000E8008E778093E800CBCF84918093F10091
:1034A0003196615071092F5F3F4FE6CF80918A02BC
:1034B000882341F0853041F08091E80083FFBDCF43
:1034C00081E0089582E0089583E00895982F973071
:1034D00028F08F708093E90081E008959093E900CF
:1034E000242F762F50E0981731F07091EC00209146
:1034F000ED005091F00021FD02C09F5FE8CF3091B8
:10350000EB003E7F3093EB003091ED003D7F309338
:10351000ED003091EB0031603093EB007093EC00E4
:103520002093ED005093F0002091EE0027FDE5CFB1
:1035300080E0089580918B0287FF13C08091E8009E
:1035400082FF06C08091E8008B778093E80004C07A
:1035500080918A028111F2CF089580918A02882396
:10356000D9F38091E80080FFF8CF8091E8008E7752
:10357000ECCF2091E4003091E50095E6A90120917F
:10358000EC00822F817020FF06C08091E80080FF50
:1035900006C080E008952091E80022FD1AC08091C5
:1035A0008A02882389F0853089F08091EB0085FDBF
:1035B0000FC02091E4003091E50042175307F9F263
:1035C0009150E1F684E0089582E0089583E0089543
:1035D00081E008950E94591B0E94611BE0EEF0E01B
:1035E000808181608083E8EDF0E080818F77808347
:1035F00019BCA7EDB0E08C918E7F8C9380818F7E7B
:1036000080831092890208950F931F93CF93DF93C5
:103610000E94591B0E94611BC8EDD0E088818F7702
:10362000888388818068888388818F7D888319BC9E
:1036300010928A02109286021092880210928702DB
:1036400000EE10E0F80180818B7F808388818160AB
:10365000888342E060E080E00E94661AE1EEF0E0DC
:1036600080818E7F8083E2EEF0E0808181608083C4
:10367000808188608083F80180818E7F808388814B
:1036800080618883DF91CF911F910F910895E8EDBC
:10369000F0E080818F7E8083E7EDF0E080818160C3
:1036A000808384E082BF81E0809389020E94041BB2
:1036B0000895E8EDF0E080818E7F80831092E20033
:1036C00008951092DA001092E10008951F920F926F
:1036D0000FB60F9211242F933F934F935F936F93E5
:1036E0007F938F939F93AF93BF93EF93FF938091BB
:1036F000E10082FF0BC08091E20082FF07C0809151
:10370000E1008B7F8093E1000E94C51D8091DA006B
:1037100080FF19C08091D80080FF15C08091DA0029
:103720008E7F8093DA008091D90080FF96C080E17F
:1037300089BD82E189BD09B400FEFDCF81E080939F
:103740008A020E94A6178091E10080FF19C0809133
:10375000E20080FF15C08091E2008E7F8093E2003E
:103760008091E20080618093E2008091D8008062C5
:103770008093D80019BC85E080938A020E94BA1712
:103780008091E10084FF2BC08091E20084FF27C07C
:1037900080E189BD82E189BD89B5982F917080FF54
:1037A000FBCF8091D8008F7D8093D8008091E1007D
:1037B0008F7E8093E1008091E2008F7E8093E20013
:1037C0008091E20081608093E200809186028823EC
:1037D00009F449C084E080938A020E94C317809153
:1037E000E10083FF29C08091E20083FF25C0809122
:1037F000E100877F8093E10082E080938A0210924B
:1038000086028091E1008E7F8093E1008091E2004A
:103810008E7F8093E2008091E20080618093E200DD
:1038200042E060E080E00E94661A8091F0008860CB
:103830008093F0000E94B717FF91EF91BF91AF9175
:103840009F918F917F916F915F914F913F912F91B8
:103850000F900FBE0F901F90189519BC10928A02FE
:103860000E94B41770CF8091E30087FD93E090939E
:103870008A02B3CF1F920F920FB60F9211242F938B
:103880003F934F935F936F937F938F939F93AF93E8
:10389000BF93CF93DF93EF93FF93D091E900DF7055
:1038A0008091EC00C82FC17080FDC0E81092E90043
:1038B0008091F000877F8093F00078940E947E1CB6
:1038C0001092E9008091F00088608093F000CD2B89
:1038D000CF70C093E900FF91EF91DF91CF91BF913D
:1038E000AF919F918F917F916F915F914F913F9198
:1038F0002F910F900FBE0F901F901895AAE2B0E085
:10390000E4E8FCE10C940A1E8BE892E02091F100BF
:10391000FC012193CF01F2E083399F07B9F70E94A0
:10392000E3178091E80083FF1EC180918B02909184
:103930008C029A3008F017C1E92FF0E0EB52F14EFB
:103940000C94F51D803899F0823809F00CC18091F3
:103950008F028F70873008F006C18093E900809154
:10396000EB0085FB882780F91092E90006C0809162
:10397000870290918802911182609091E800977F70
:103980009093E8008093F1001092F1008091E8009C
:103990008E77E5C0882309F4D3C0823009F0E3C0F4
:1039A00080918D028111D6C080918F028F702FEF90
:1039B000280F263008F0D7C08093E9002091EB0053
:1039C00020FFC8C0933031F48091EB008062809377
:1039D000EB00C0C09091EB0090619093EB0021E070
:1039E00030E001C0220F8A95EAF72093EA00109296
:1039F000EA008091EB008860EACF8111B4C0109199
:103A00008D021F778091E3008078812B8093E30003
:103A10008091E800877F8093E8000E949A1A809145
:103A2000E80080FFFCCF8091E30080688093E30092
:103A300082E0111183E080938A0295C08058823021
:103A400008F091C080918D0290918E028C3D23E010
:103A50009207A1F583E08A838AE289834FB7F894BD
:103A6000DE01139620E03EE051E2E32FF0E05093B8
:103A70005700E49120FF03C0E295EF703F5FEF70C5
:103A80008E2F90E0EA30C0F0C7968D939D932F5F04
:103A9000243159F74FBF8091E800877F8093E80079
:103AA0006AE270E0CE0101960E94A9198091E800B7
:103AB0008B778093E80057C0C096E7CF60918F0264
:103AC00070919002AE014F5F5F4F0E94E418BC01FD
:103AD000892B09F448C09091E800977F9093E80003
:103AE00089819A810E94071AE1CF8038E1F580919F
:103AF000E800877F8093E800809186028093F10040
:103B000045CF811130C090918D02923060F5809147
:103B1000E800877F8093E800909386020E949A1ABB
:103B200080918602882311F084E005C08091E30033
:103B300087FDFACF81E080938A020E94CE1713C0DE
:103B400080918D02813079F481E0933009F080E03A
:103B5000809388021092E9008091E800877F80932B
:103B6000E8000E949A1A8091E80083FF0AC08091C1
:103B7000E800877F8093E8008091EB00806280936B
:103B8000EB00AA96E3E00C94261E0895CF93809153
:103B90008A028823A1F0C091E900CF709091EC00D7
:103BA000892F817090FD80E8C82B1092E9008091E8
:103BB000E80083FD0E947E1CCF70C093E900CF9186
:103BC000089597FB072E16F4009407D077FD09D0CF
:103BD0000E94321E07FC05D03EF4909581959F4FC0
:103BE0000895709561957F4F0895EE0FFF1F059022
:103BF000F491E02D09942F923F924F925F926F9231
:103C00007F928F929F92AF92BF92CF92DF92EF926C
:103C1000FF920F931F93CF93DF93CDB7DEB7CA1BED
:103C2000DB0B0FB6F894DEBF0FBECDBF09942A8818
:103C3000398848885F846E847D848C849B84AA84C0
:103C4000B984C884DF80EE80FD800C811B81AA814D
:103C5000B981CE0FD11D0FB6F894DEBF0FBECDBF18
:103C6000ED010895AA1BBB1B51E107C0AA1FBB1F92
:103C7000A617B70710F0A61BB70B881F991F5A95F8
:103C8000A9F780959095BC01CD010895FB01DC0159
:103C900004C08D910190801921F441505040C8F723
:103CA000881B990B0895FB01DC0102C001900D9265
:103CB00041505040D8F70895F999FECF92BD81BD8B
:103CC000F89A992780B50895A8E1B0E042E050E065
:103CD0000C94901E262FF999FECF92BD81BDF89AC3
:103CE000019700B4021639F01FBA20BD0FB6F89440
:103CF000FA9AF99A0FBE08950396272F0E946B1E19
:103D00000E946A1E252F0E946B1E242F0C946B1E8E
:103D10000196272F0E946B1E0C946A1EDC01CB01BA
:103D2000FC01F999FECF06C0F2BDE1BDF89A3196CB
:103D300000B40D9241505040B8F70895F894FFCF69
:103D4000F903F9034A044A04BD04D90428042804E9
:103D5000DE044F055E055E0596130A149E13681374
:103D60006C13A2137013A613B2137C1303148013E5
:103D7000B6138413BA13E2138813BE13E9138E1318
:103D8000C413CC137413AA137813AE139213C8136D
:103D9000D813F213011462139A131114C514CB141F
:103DA000B414BF14D114D714DD14A21CCA1CB31D43
:0E3DB000CA1CB31DFD1C1E1DB31D751D811DFB
:103DBE000602280850011E0A14014D1782177B17A0
:103DCE00741701E200E900EA00B500B600B700CDB5
:103DDE00008301CC008A0192019401210223022466
:103DEE00022502260227022A02B300B4006F0070D9
:103DFE00009F01CB019F02A002818283E200E900B5
:103E0E00EA00B500B600B700CD008301CC008A01F0
:103E1E009201940121022302240225022602270286
:103E2E002A02B300B4006F0070009F01CB019F0205
:103E3E00A002818283F4F5F6F73133946697C63487
:00000001FF
